:040000006F10806796
:100004000000000000000000601200006212000006
:100014000000000076160000000000000000000050
:1000240076160000761600000000000000000000B4
:1000340076160000000000007616000000000000A4
:10004400761600007616000076160000761600007C
:10005400761600007616000076160000761600006C
:10006400761600007616000076160000761600005C
:10007400761600007616000076160000761600004C
:10008400761600007616000076160000761600003C
:10009400761600007616000076160000960A000018
:1000A400761600007616000076160000761600001C
:1000B400EC0F000076160000A60D00007616000076
:1000C40076160000761600007616000076160000FC
:1000D40076160000761600007616000076160000EC
:1000E40076160000761600007616000076160000DC
:1000F40076160000761600007616000076160000CC
:100104000000000076160000761600007616000047
:10011400E411000076160000761600007616000042
:10012400761600007616000076160000761600009B
:10013400761600007616000076160000761600008B
:10014400761600007616000076160000761600007B
:10015400761600007616000076160000761600006B
:10016400761600007616000076160000761600005B
:10017400761600007616000076160000761600004B
:10018400761600007616000076160000761600003B
:10019400761600007616000076160000761600002B
:1001A400000000000000000000000000000000004B
:0C01B4000000000000000000000000003F
:1001C000397101436EC619A0397141536AC866CAB4
:1001D00062CC5ECE19A0397101535AD056D252D496
:1001E0004ED64AD826DA22DC06DE3301614082820E
:1001F00041114AC026C222C406C68282B24D4101C4
:10020000024D924C224CB24B4101024B924A224A7F
:10021000B2494101024992442244B24041018280E4
:10022000EFF21FFD371401402A89A144130404C0D2
:1002300093178901E18793050008228563DC070293
:10024000EF10E0610945EF1030409305000422856E
:10025000EF10E0600945EF10303FFD1493050004F6
:100260002285060993F4F40FEF10A05F1379F90FBC
:10027000E1F04DB7EF10E05EF1B7EFF27FF7371422
:10028000014093050008130504C0EF10405D0545CB
:10029000EF10903B93050004130504C0EF10205CA1
:1002A0000545EF10703A93050008130504C0EF10E0
:1002B000605AAA8493050004130504C0EF10605A25
:1002C000268589BFEFF2DFF2371401402A89AE8418
:1002D000130504C093050008EF106058930500044F
:1002E000130504C0EF10A0571145EF10F03593052A
:1002F0000008130504C0EF10C0561145EF10D034AC
:1003000093050004130504C0EF10A05513058007E2
:10031000013FA5374A8529378D3726851137B13FEB
:10032000130504C093050008EF10A05393050004C3
:10033000130504C0EF10A0521145EF10F0309305E3
:100340000008130504C0EF1080511145EF10D02FA5
:10035000D1B5EFF2FFE941118545214502C202C442
:1003600002C6EF1080709307000C371401407C82A6
:10037000D1473EC64C008D47130504C03EC4EF1064
:1003800060419305000C130504C0EF10404D41017E
:1003900051B5EFF2FFE5AA8501452D37A5BDEFF276
:1003A0003FE5AA8513050004313FADB5EFF25FE4E8
:1003B00013054006EF10B02C1305E00AD93F1305D2
:1003C0000002C13F4145F1371305000BD937130532
:1003D000800CC1370945753F4145653F1305000451
:1003E0004D3F1305100875371305F00F5D371305E2
:1003F000100A45371305600A693F1305800A513F0B
:100400001305F00379371305400A61371305300DE2
:1004100049370145BD3F1305500DA53F1305000F9A
:100420008D3F1305900DB537130520029D37130539
:10043000A00D85374945B13F1305B00D993F130510
:100440000002813F1305D008A9375145993713059C
:10045000F00A8137C1B3EFF2BFD9938505FB2A8437
:1004600013F5F50F3D371355440013650501153796
:100470001375E40013651500293F69BBEFF25FD7E0
:100480001304000B1309800B228521370145113716
:100490004145013793042008FD14014593F4F40FFE
:1004A000FD3DFDF805041374F40FE31F24FD9DB317
:1004B000EFF29FD185472A842E89B28A6388F60499
:1004C0008947638DF60A2DBB811793F4F70F63F606
:1004D0008B0005091379F90F0144B3846403CA85BD
:1004E0002285953F014CB3878401D2978823050C60
:1004F0007D35E31A6CFF190485091374F40F93F921
:10050000F90FB3873A019C23E1F375BF156A81495E
:10051000930BA007194B130A4AF6E5B7811493F41D
:10052000F40F63768B0009091379F90F0144CA852A
:10053000228592040D37014CD294B387840188231D
:10054000050CB13DE31B7CFF9305190093F5F50FF6
:1005500022851137214C88247D1C137CFC0F8135AA
:100560008504E31A0CFE210485091374F40F93F932
:10057000F90FB3873A018423D5F0B1B7156A8149E1
:10058000130B8007130ACA18A14BE5B7EFF25FC639
:100590004111D1473EC63715014091477C824C003E
:1005A0008D47130505803EC4EF10C01E41019DB16B
:1005B000EFF21FC44111930780043EC63715014076
:1005C00091477C824C008D47130505803EC4EF1097
:1005D000601C410181B1EFF2BFC137140140894570
:1005E00013050480EF10A0271145EF10F005914589
:1005F00013050480EF10A0260945EF10F004914583
:1006000013050480EF10E0250945EF10F00389453C
:1006100013050480EF10E0240945EF10F002DDBE61
:10062000EFF21FBD371401402A89A144130404804E
:1006300089452285EF10E0220945EF10F00093175D
:100640008901E1879145228563D60702EF102021B9
:100650000945EF10607F89452285EF104020FD1489
:100660000945060993F4F40FEF10007E1379F90F92
:10067000E1F04DB6EF10E01EE1BFEFF27FB73714A7
:100680000140130504808945EF10A01D9145130515
:100690000480EF10001D0945EF10007B894513050C
:1006A0000480EF10C01B1145EF10007A914513052F
:1006B0000480EF10C01A0945EF100079A1BEEFF2D7
:1006C0003FB337140140894513050480EF106019CA
:1006D0000945EF106077E93D914513050480EF105F
:1006E00000180945EF104076130504808945EF1086
:1006F00000170945EF1040759304700C1304048033
:1007000091452285EF10001511C50545FD14EF1028
:10071000A073FDF4A53D13F5F40FEDBC81469307DE
:10072000F00F13F7F60F6364B7003E85828033073E
:10073000D5001823B98F2147139887011396170006
:10074000135888419377F60F6356080093471603B2
:1007500093F7F70F7D171377F70F79FF8506D1B75A
:10076000EFF21FA90111AA842E841145854532C6D6
:10077000EF10A02F3246A38404009307401F90A0DF
:100780009305401F6363F400A285D14737140140ED
:100790003ECE894713050480CCC4FC824C088D47AB
:1007A0003ECCEF00307FDD33130504808945EF1028
:1007B000000B914513050480EF10600A05616FF08E
:1007C0007FA55C412947A9075CC1637AF71EEFF258
:1007D000BF9F18352A8439E785471CB50421930744
:1007E00030031EA9CD3B139514001375E50F0D3D85
:1007F000F935AA841305C00A2535D13511E993B41A
:10080000140013891400953D230424016FF05F9FA9
:100810000549F5D8082801492135553508380935E5
:10082000793DD5B79306600963F3F61885466310E2
:10083000D718894704211CB5130B4502693B139552
:10084000140005051375F50FE13B953DB714014004
:100850002A8A933B1500DA8A9D49938404801D4CB3
:10086000A14C63030A0A89452685EF00907F09455C
:10087000EF10805D353B91452685EF00507E0945A0
:10088000EF10805C014D014989452685EF00707DA0
:100890000945EF10605B89452685EF00507C0945CE
:1008A000EF10805A91452685EF00D07A01C50509E1
:1008B0001379F90F63058D0106091379F90F050DF9
:1008C000137DFD0FE3129DFDD131894526852380DF
:1008D0002A01EF0010790945FD19EF10E05693F950
:1008E000F90F91452685638B0902EF009077094542
:1008F000EF10805589452685EF0070761145EF1081
:10090000A054850AE39F09F48D3B23047401631A04
:100910000A00930700001CDC5CDCCDBDEF003074E6
:10092000F9B799455A85DD3B8347A402E390A7EECA
:1009300083474402614793F78709E399E7EC03454E
:10094000540283447402375900009317850003450D
:1009500064023E95220526951181EF406024B75729
:10096000000083A5C777BD88A204EF3090358325AA
:100970000978EF30103508DC03458402AA9403455A
:100980009402A2042695EF40A021B757000083A54A
:100990004778EF30103383250978EF309032B7571E
:1009A000000083A58778EF30D05A48DC85B55845DC
:1009B000E37EF7E4A30405002322050081BD58452A
:1009C0006377F700A304050023220500828082805C
:1009D000EFF21F82130680039305007D1385C18308
:1009E00041336FF03F83EFF2BF801385C183D13B6A
:1009F0006FF05F8203A58187828003A54187828093
:100A0000EFF20FFF79718545154502CA02CC02CE7F
:100A100002D002D202D402D602C602C8EF10E0040D
:100A20009307000C37150140FC824C0893078004A3
:100A3000130505803ECEEF00F05599450145EF00C6
:100A400090629307000405443ED00810B1473ED49D
:100A500022D602D2EF00F04A9307703268007C86FB
:100A600022C823070100EF00306345616FF08FFA61
:100A7000B70700201387071F18439387071F635486
:100A8000070023A007009443130740066353D700D1
:100A900098C38843828013050004EF00304D25C1C0
:100AA00083A6018293874181984315463387E640A8
:100AB0006373E604371501409305000813050580AC
:100AC00094C3EF003059854611E1FD56138701812B
:100AD0001043938781816316D6029843050798C314
:100AE000635BE000370700201307071F104323A0B4
:100AF0000700B29614C313050004EF0010497300F9
:100B0000203014C3054798C3FDB7EFF26FEE011113
:100B10008545114502CA02CC02CE02C402C6231882
:100B2000010002C002C2EF00507485451145EF007C
:100B3000B075C14737140140FC82C1473ECE4C0816
:100B40008D47130504803ECCEF00D044130504808C
:100B5000C145EF001051A147FC824C089147130595
:100B600004803ECEEF00104337140040930770041A
:100B70003EC42C009307703E130504803EC6EF0070
:100B800090720546130504808545EF10400E81459F
:100B900013050480EF10C00A9307E0227C8085478C
:100BA0005C810A8585473EC2EF00104F05616FF0FA
:100BB0006FE6EFF26FE17971353DB757000083A51D
:100BC0000779B719014037190040EF30900FB75738
:100BD000000083A54779814493890980EF30801B09
:100BE000B757000083A5877913090980EF3020519A
:100BF000AA8B130C803EC1454E85EF0050465145EF
:100C0000EF108024C1454E85EF00B04583AA0182D4
:100C10002684938ACA03A1454E85EF00B04349C19B
:100C200081454A85EF1040089387C18185454A85F3
:100C300023900700EF10C00083AA0182938CC1812A
:100C4000054D938ACA03A1454E85EF00B040630568
:100C5000A50781454A85EF00B07E03D40C004A8584
:100C6000EF10000542044180330484033C00939A52
:100C70002400BE9A85042295EF309072DE85EF3015
:100C8000500423A0AA003D45EF10601FA947E3943C
:100C9000F4F6294424000149268A130CF4FF3DA8E8
:100CA00083A70182E3F9FAF68947E3C597FEB757B0
:100CB000000003A5C77891A883A70182E3F5FAF89D
:100CC00037150040814513050580EF007077E9BFB7
:100CD0000509A689CA8A631D54039104E34A89FF62
:100CE0009147854463D587009544B344940226898F
:100CF00093090000058C634E890233059440EF3060
:100D0000D05DAA854E85EF30803F45616FF04FCFB3
:100D100003AB040083AB49005A85DE85EF304069A0
:100D20006356A00023A0740123A26901850A9109DA
:100D30005DB793172900D2978C434E850509EF3094
:100D40006005AA894DBFEFF2AFCAA5359305000033
:100D5000AA84EF30406E1304000063400504B757C7
:100D6000000083A5C7772685B7540000EF302039EF
:100D7000AA8503A5C479EF30D01D930500002A840D
:100D8000EF30606B634E050083A4C4792285A6858D
:100D9000EF3000626353A000268422856FF08FC776
:100DA00013040000DDBF411122C637140040854501
:100DB00013050480EF00107009CD1387C1811E2335
:100DC0008545130504808507C207C1831EA3EF0074
:100DD000F06F3244410173002030EFF26FC1EFF049
:100DE000DFC16FF02FC3EFF2AFC0797185452145A8
:100DF00002CA02CC02CE02D002D202D402D602C46F
:100E000002C623180100EF00504685450945EF0052
:100E1000B0478547371501408D44FC824C08E147B7
:100E2000130505C03ECE26CCEF00D0163704004097
:100E3000930770043EC42C009307703E13050440D2
:100E40003EC6EF005046C167938707060C10130596
:100E500004403ED02313010223140102EF009053FB
:100E6000130504408545EF00305F130504408145BC
:100E7000EF00B062130504408545EF007060130574
:100E800004408545EF00D05B85454145EF00F03DCE
:100E9000854513050004EF00503D894741444C0847
:100EA00037150140FC8222CE26CCEF00B00E22CEB8
:100EB00037240140930740204C0813050480FC822E
:100EC00026CCEF00300D894537150140EF00701931
:100ED0001305048093050020EF00B0189145130519
:100EE0000480EF001018238F018045616FF08FB2EE
:100EF000EFF20FB0130740069387E1816379A700F3
:100F000098A313054006A945B305B50239A088A3E7
:100F10009307C0028145E3E8A7FE370500401305AB
:100F20000540EF00B0586FF0EFAEEFF26FAC8945BF
:100F300037150140EF00B01237240140130504803B
:100F400093050020EF00F011914513050480EF0098
:100F500010116FF02FACEFF2AFA9370500408145BB
:100F600013050540238F0180EF00505437250140C1
:100F7000914513050580EF00D00E6FF0AFA903C5B2
:100F8000E1818280EFF2CFA6EFF0DFA66FF08FA8AD
:100F9000EFF20FA60111AA842E8405458545EF00C6
:100FA000B02E7D144C08FD1437050040E484E08227
:100FB000231D0100231B0100EF00F02E054685458F
:100FC00037050040EF00B04A9307C0027C868D478A
:100FD0005C87680085473EC8EF00100C85453705E3
:100FE0000040EF00F04505616FF0CFA28545370561
:100FF0000040EF00304C19C9938701829843854522
:1010000037050040050798C3EF00504C73002030AF
:10101000EFF20F9E79712A848545414502CA02CCC0
:1010200002CE02D002D202D402D602C602C8EF001B
:10103000D023854537050800EF00102593070040B1
:10104000FC828D473ECC4C08E147371501403ECE2F
:10105000EF004074856793870780FC824C089147B6
:10106000371501403ECEEF00E07222D037540040E9
:10107000B7070C000C10130504C03ED402D223168F
:101080000102EF0070450546130504C09305505258
:10109000EF00F04E8545130504C0EF00F04C9307B8
:1010A00040247C8685475C87680085473EC8EF0002
:1010B000A07E45616FF00F96EFF28F93375400409A
:1010C000AA84130404C08385040099E16FF08F940F
:1010D00093F5F50F22858504EF00D04D93050008A8
:1010E0002285EF00304E7DD9F9BFEFF2CF8E3571FA
:1010F000EFF07FC52A89EFF05FCEAA8961352A8497
:10110000BD3DAA844E85EF3090362ACC4A852ECE3E
:10111000EF30F0352AC8228526C42ECAEF3030358C
:101120006248F2484247D247375600002AC02EC2D2
:101130001306867B930580072810EF10C05A2810ED
:10114000A53F0D616FF06F8CEFF28F8AB7550000ED
:1011500019469385057A2A84EF30704315E5130507
:101160006400EF307042930740062A8463E9A700C9
:101170001375F50FEFF0DFD709C4EFF01FDB6FF049
:101180006F89EFF05FDDE5BFB75500001D46938521
:10119000857A2285EF30B03F11ED03077400930785
:1011A000100391453725014013050580631AF702A6
:1011B0007D25F1B7B755000015469385057B22853F
:1011C000EF30F03C4DFD0307540093079003E31804
:1011D000F7FA030774009307100393050020D9B7AB
:1011E000492571BF411122C6375400409305505222
:1011F000130504C0EF00B03D25C1130504C0EF0086
:10120000F03B9375F50F13070004938751826394A5
:10121000E5002380070094231307E0076364D702E7
:10122000138716001376F70F1387C187BA9688A223
:1012300090A3A946639AD5003297230007008546FC
:101240002382D182238007003755004093055052F6
:10125000130505C0EF00703B32444101730020309C
:1012600001A0B707EFBE37E700E0938707083CC748
:1012700001A0EFE2FFF401110945212D7164F92469
:10128000EF00F03913050420EF00D04293078008E7
:1012900073A00780930540061305003CEFF05FCF75
:1012A000EFF02F8BEFF08F90EFF04F9D375600004F
:1012B00085461306867D81450145EFF06F9FEFF06F
:1012C000DF84EFF0EFF0EFF01FB2EFF06FF31305F4
:1012D0000420EFF0FFD3375500001305857EEF1093
:1012E0002043B757000003AB477D93040000FD592E
:1012F000B75B0000376C0000B76C0000EFF0AFEE9A
:101300001387C18283A601821C431306F07CB38736
:10131000F6406379F60214C3EFF0BF89930500002D
:101320002A84EF30E008635FA000A2855A85EF3081
:10133000404293050000AA84EF30E00F635405009B
:10134000930400001387818283A601821C43130645
:10135000700CB387F640637DF60A14C3EFF08FE993
:10136000AA8DEFF08FE92A8DEFF08FF02A84638A3F
:10137000A9001375F50FEFF0BFB76359800CEFF0BC
:10138000DFBA6E85EF30B00E2A87AE8713868B7F6B
:10139000930500020A85EF10003585460A868145CF
:1013A0000145EFF0EF906A85EF30700C2A87AE8729
:1013B00013068C80930500020A85EF10C032854623
:1013C0000A8689450145EFF0AF8E2685EF30300A59
:1013D0002A87AE871386CC81930500020A85EF1019
:1013E000803085460A8691450145EFF06F8C37665F
:1013F0000000A28613060683930500020A85EF10FB
:10140000802E85460A8699450145EFF06F8AA289AC
:101410009387018303A601829443056713077738F6
:10142000B306D6406375D70090C3EFF01FCC83C7D7
:10143000418289CB370500201305C526EFF0DFD0A8
:10144000238201822945EF0090234DBDEFF0BFB00C
:101450000DBFB71702409843B706FFF0411113675D
:10146000170098C3D84337060200758FD8C3984336
:10147000B706F7FEFD16758F98C39843B706FCFFB5
:10148000FD16758F98C3D843B70601FFFD16758FFB
:10149000D8C39843B70600ECFD16758F98C337077D
:1014A000FF0098C723A6070202C402C69843C1667C
:1014B000558F98C3B716024005679C42F18F3EC610
:1014C000A24785073EC4B24781E7A247E397E7FEFC
:1014D000B71702409C431397E700635707068547F9
:1014E0003EC632478547631FF704B7170240D8430B
:1014F000B706C1FFFD16D8C3D843D8C3D843136776
:101500000740D8C3D843758FD8C3D843B70629003E
:10151000558FD8C39843B7060001558F98C3984399
:1015200093166700E3DD06FED843B7160240719BB1
:10153000D8C3D84313672700D8C32147DC42B18BF7
:10154000E39EE7FE4101828002C661BFB7160240FA
:10155000D8421146318B938741806305C7002146ED
:101560006308C70237177A001307072098C3371795
:101570000240584311839376F70037070020130782
:1015800007003697142398433357D70098C38280B7
:10159000D842D442416649833D8BF18E1306270021
:1015A00015CF3D47630FE6024147630FE60245470B
:1015B00081456313E6004146A1E237470240032715
:1015C0000780418B0DC737177A00130707203306B2
:1015D000C70290C3C9DD9843058349BF8145494689
:1015E000E1BF85453546C9BF81453D46F1B737174F
:1015F0003D0013070790E1BF371502405855931679
:10160000F700585563DF060411833D8B93061700DE
:1016100037177A00130707203357D70298C354555A
:10162000A182BD8A8DE295463307D702058398C310
:1016300037170240585794433D8B050733D7E602CE
:1016400098C3984369B705456394A600E546E9BF8A
:101650003D456396A600D1463387E602C9BF890699
:10166000E5BF3D8B9306170037177A001307072055
:101670003357D702F1B701A097F1FF1F938181374C
:101680001771002013010198174500001305454DFF
:1016900097F5FF1F938505971386018163FAC500AF
:1016A0008322050023A0550011059105E3EAC5FE3C
:1016B000138501819385C18F6377B50023200500D1
:1016C0001105E36DB5FEFD42739002BCAD4273900F
:1016D0004280B7620000938282087390023097F2D2
:1016E000FFFF9382629293E2320073905230EFF0E8
:1016F0005FD697020000938202B873901234730091
:1017000020305841032805004C4537060140930717
:1017100006403E979346F8FFB1C583250640F58DF8
:101720002320B640D043F18ED4C31443B3E6060160
:1017300014C3184190479346F7FF758E90C7D04762
:10174000F18ED4C7144541466399C6009447D98E9B
:1017500094C7D447558FD8C78280B6979443558F86
:1017600098C382801C43F58F1CC38280B707014059
:101770001387074083A70740584B698F09C77D8DA2
:101780003335A000828001458280B707014023AA3B
:10179000A74082809C4513F7070113F8F70001C7A3
:1017A000D8413368E8008E2113F7F50F39C318418B
:1017B0008146854E3D4F930F800293028004214E57
:1017C0003396DE00B3F8C500631116039398260024
:1017D00033131F011343F3FF3377E300B3181801EA
:1017E00033E7E800639FF70550C98506E39AC6FD15
:1017F00018C11307F00F6375B70454412146854E95
:101800003D4F930F800293028004414EB398CE0067
:1018100033F715016392E8021317260001173313FB
:10182000EF001343F3FFB376D3003317E800D98EEC
:10183000639DF701232A15010506E319C6FD54C16E
:101840008280E39457FA10C94DB7E39757FE2328D7
:101850001501DDB708456D8D3335A00082800CC9B8
:1018600082804CC9828013F7C50F93F73500B70506
:101870000140BA9594458A073D473317F70013474F
:10188000F7FF758F98C598453315F500598D88C5B4
:10189000828023AAA182828003A7418389471021E5
:1018A0006311F70214318D4763EDD7003C219A068E
:1018B00037E700E09607D58F93F7F70F32972300AD
:1018C000F74054410547935756003317C70089CA5C
:1018D000938707048A07B7E600E0B69798C382802B
:1018E00093870706B7E600E08A07B69798C30F10FC
:1018F00000008280371702405C439146B18B6385BC
:10190000D700A1466382D706B7177A0093870720CE
:101910001CC1371602405C4237070020130707013D
:101920009183BD8BBA9794231C41B3D7D7005CC178
:101930005442A1829D8ABA969422B3D6D70014C588
:101940005442AD829D8A36971823B3D7E7005CC511
:10195000584239839376370013878180369718234E
:10196000B3D7E7021CC982805C435843C166C98370
:10197000758FB7F6FF1F83A6C670BD8B89071396B8
:10198000160163480600C54601466392D702C9475F
:1019900039A88946638FD702BD46638ED702C146F8
:1019A000638ED702C54601466393D700C1471DEF3A
:1019B0003747024003270780418B05C737177A0056
:1019C00013070720B307F7021CC121D61C418583EA
:1019D00081B701466DBF0546B547D1BF0146BD473A
:1019E000F9B737173D0013070790E9BFB715024055
:1019F000D8559316F700D85563DF060411833D8B45
:101A00009306170037177A00130707203357D702BA
:101A100018C1D455A182BD8A8DE295463307D702FD
:101A2000058318C137170240585714413D8B0507ED
:101A300033D7E60218C1184171B785456394B600E3
:101A4000E546E9BFBD456396B600D1463387E60259
:101A5000C9BF8906E5BF3D8B9306170037177A008B
:101A6000130707203357D702F1B799C5371702403C
:101A70001C4F5D8D08CF8280B7170240984F1345E9
:101A8000F5FF798D88CF828099C5371702405C4F6A
:101A90005D8D48CF8280B7170240D84F1345F5FFC0
:101AA000798DC8CF828037F7FF1F032747701E212B
:101AB000914611833D8BC2077117C18363E6E6022D
:101AC00037370140930607C0630ED5001307074060
:101AD000630AE50037570140930607C06304D50049
:101AE000631AE5000967D98F37370140130707C02C
:101AF0006302E50437070040630EE5021307074061
:101B0000630AE50237170040930607806304D50295
:101B1000130707C06300E50237370140130707408A
:101B2000630AE50037570140930607C06304D500F8
:101B30006318E50093F7F7F8BA21C207C183D98F7C
:101B400037170040630CE500130707406308E50002
:101B500093F7F7CFFA21C207C183D98F1EA1DE21E7
:101B60005EB59E211EB5B7370140138707C0630ECF
:101B7000E50093870740630AF500B75701401387D4
:101B800007C06304E5006314F5009C251EB9854772
:101B90005EA982801E3103D88500C207C18393F7F6
:101BA000F7EFC207C1831EB11E3156215A2DC2075D
:101BB000139606014207962141831377C7F8558F84
:101BC000B621C18393F7F7DFB3E60601A206D58FEE
:101BD000B7360140C207138806C04182C183630E35
:101BE000050193860640630AD500B7560140138865
:101BF00006C063040501631FD502FD769386F67F58
:101C0000F58FB62503D8C500A206D58FD621C20709
:101C1000C183A20693F7F7BFD58FF576FD16F18E37
:101C2000F225C207C183336606011206D18E1396D0
:101C30000601418252A15AADFA215ABD1EB18280DD
:101C40001E2189C593E717001EA18280C207C183A8
:101C5000F99BC207C183CDBF8357450491C5216756
:101C6000D98F2312F5048280C607C583DDBF5E25A8
:101C700001C6DD8D4EA5828093C5F5FFFD8DDDBFCC
:101C80001E2189C593E707081EA18280C207C18370
:101C900093F7F7F7C207C183C5BF5E2DC207C183A3
:101CA000DD9BDD8D4EAD82804EB182804EBD828047
:101CB0004A3182801E294A25ED8F4205418189C71C
:101CC0006D8D3335A00082800145828093C5F5FF7C
:101CD000C205C1810EA98280EFE28FD11629F57766
:101CE000FD17F58FF621DA257971D58F1EA95625B6
:101CF000FD779387379FF58FD6212A842EC6D58FFF
:101D00009625D58FB625D58F5EA55E29C207C183DE
:101D100093F7F7CFD98F5EA96808EFF0BFBDB7473B
:101D2000014093870780B245631EF402A2576547BE
:101D3000B387E7029841930640060A07B3D7E70244
:101D400033D7D702B3F7D702120792079387270337
:101D5000B3D7D702BD8BD98FC207C1831EA44561FB
:101D60006FE04FCB9257E1B791C55E250967D98FD8
:101D70005EA582805A25F977FD17F98FD5BF13F735
:101D8000F50F85471583B395B7006319F7009307DF
:101D9000C500984301CED98D8CC3828089469307B4
:101DA0004501E318D7FE93070501E5B793C5F5FF95
:101DB000F98DDDB793F5F51F4EA182804A21137589
:101DC000F51F82800A216D8D3335A000828013F7C4
:101DD000F50F85461583B397B6006311D7025A25D0
:101DE000F98F1A2101454207418381CB0545A18125
:101DF000B315B5006D8F3335E000828089466314DA
:101E0000D7001A29F1BF5A29E1BFA1818547B397AD
:101E1000B70093C7F7FFC207C1831EA18280B7072F
:101E2000002083A7471F37177A0013070720B3D76F
:101E3000E70293F7F70F238DF1821307803EB387F4
:101E4000E702239CF1828280B7F700E0D843814605
:101E5000799BD8C303C7A1833306A70290CBD4CB09
:101E600098431367070198C398431367170298C3F1
:101E7000D843058B75DF9843799B98C38280B7F769
:101E800000E0D8438146799BD8C303D781833306CA
:101E9000A70290CBD4CB98431367070198C398430C
:101EA0001367170298C3D843058B75DF9843799B56
:101EB00098C38280EFE2CFB301112A8485453705AC
:101EC0000400EFF07FBC85452145EFF01FBA930772
:101ED00000407C82371501408D473EC44C00E147ED
:101EE000130505C03EC6EFF0FF8A22C837540040F4
:101EF000B70708000C08130504803ECC02CA231E55
:101F00000100EFF07FDD854513050480EFF0DFE58C
:101F100005616FE02FB0EFE20FACB7540040AE891F
:101F20003289014493840480634524014A856FE02B
:101F3000CFAD930500042685EFF0DFE87DD9B387A8
:101F400089008385070026850504C205C181EFF05D
:101F50007FE6D9BF011106CE2EC60DCD1841AA8746
:101F600005C358417D5511CB8546631BD700984763
:101F70002300070023A207000545F2400561828087
:101F80009847B24614A39847050798C7D8437D17CA
:101F9000D8C3DDB705466C00BD3FF9BF797122D4C7
:101FA00026D24ECE52CC56CA06D64AD05AC82A8A13
:101FB000AE8A328481449309000263440602B387E7
:101FC0009A00838707009DE363D6840263D2E4020C
:101FD000198C93F726009309000281C719E393092E
:101FE0000003858A014985EA228931A88504C1BF99
:101FF000058CC5B70144F1BFCE8552853AC6EFF0D6
:102000007FF532477D19E34920FF2289635304009D
:1020100001493304244163CBE402CA84B3872441D9
:10202000D69783850700A1E1228963432005635386
:102030000400014433059400B250225492540259D2
:10204000F249624AD24A424B45618280B3049740CA
:10205000268B9305000352857D1BEFF0BFEFE31A3B
:102060000BFE26995DBF5285EFF0DFEE85047DB74C
:10207000CE855285EFF01FEE7D1945BF5D71A6C27A
:1020800052DC86C6A2C4CAC04EDE56DABA843E8A84
:102090009DE1930700030147D28626862C08FC8425
:1020A000EFF0DFEFB640264496440649F259625AF3
:1020B000D25A616182802A893684C68A91CAA94728
:1020C00001446317F60063D50500B305B04005442D
:1020D000A30701029307F102A546130568FC33F735
:1020E000C50263D3E6002A9713070703A38FE7FE11
:1020F0009389F7FF33D7C50263FBC50409CCB9C880
:1021000013772A0021CB9305D0024A8542C6EFF00F
:102110007FE43248FD1493774A008DC3930710067D
:10212000930500034A85631FF802EFF0BFE29305B1
:1021300080074A85EFF01FE20904F9145687D2861A
:102140002686CE854A85EFF07FE52295A1BFBA8528
:10215000CE8771B71307D002A38FE9FE014493899C
:10216000E7FF55BFEFF01FDF93058005D9B71D715D
:10217000CAC8CEC6D6C2DAC03A8986CEA2CCA6CA12
:10218000D2C45EDE62DC66DA6AD86ED633E7C5009A
:10219000BE89AA8A428B8347010631E38DCF8D67C2
:1021A0009387D7027C84230501000147DA864E8697
:1021B0002C005685EFF09FDEF6406644D644464933
:1021C000B649264A964A064BF25B625CD25C425D97
:1021D000B25D25618280930700037C84F9B7368A5B
:1021E000AE84328463000902A9470149639CF6006A
:1021F000635A0600B304B040B33790003304C040C4
:102200001D8C0549A30F0100130DF101935DFA41E7
:10221000A54C138C68FC5286EE862685A285EF00BD
:10222000F00C63D3AC00629513050503A30FADFE5C
:102230005286EE862685A285930BFDFF392B6366B9
:10224000B401639A8D0263F84403630D0900638847
:10225000090293772B0085C79305D0025685EFF0CE
:102260007FCFFD190147DA864E86DE855685EFF071
:10227000FFD24A9591B7AA842E845E8D69BF9307D9
:10228000D002A38FFBFE0149930BEDFFE1BF5D710F
:10229000A6C2CAC0AA842E892E85B28586C63ACE29
:1022A00042CCA2C44EDE52DCB289368A56DA5AD803
:1022B000BE8A5ED662D466D2468C6AD0EF107006B3
:1022C0002A8BAE8B01468146CE854A85EF00B03A17
:1022D000724762487D81BA872AC00547E288D28664
:1022E000DA855E862685EFF09FE82A8D9305E00269
:1022F0002685EFF03FC6050D8147854C01442947EF
:1023000063CE57075A85DE85EF10700D2A86AE869C
:102310004A85CE85EF10000D2A89AE896685A28593
:10232000EF10F00B2A86AE864A85CE85EF0010406E
:10233000EF10207F13D6F541318DB347B600B305BA
:10234000C5403335B5003386C74002C0E288D68722
:10235000D286098E094826850547EFF05FE1B64031
:1023600026446A9596440649F259625AD25A425B0B
:10237000B25B225C925C025D61618280B30687027F
:10238000850733349703B30C9703369495BF5D717B
:102390005AD8376B0000A2C4A6C2CAC04EDE52DCB7
:1023A00056DA5ED662D486C666D2AA892E8932846F
:1023B000014A8144930B5002930AB002294C130B3B
:1023C0000B84830509008DE56386090081454E85F0
:1023D000EFF05FB8B6402644268506499644F25988
:1023E000625AD25A425BB25B225C925C616182802B
:1023F000638875014E85EFF0FFB585040509D1B7F7
:1024000083071900930C1900639A77019305500212
:102410004E85EFF03FB485046689CDB7D5D7638785
:10242000570563C8FA00130730026384E704814745
:1024300005A01307D002638AE70013070003E3989F
:10244000E7FE930C2900894721A0930C29008547BA
:1024500003870C006303570563C1EA029306300249
:10246000630BD70266890145A54535A8930C290061
:102470007DBF930C29009147E1BF9306D002630909
:10248000D70093060003E31FD7FC93E7270031A092
:10249000850C8547C1BF93E74700850CE1B733053D
:1024A00085030509369503070900930607FD13F612
:1024B000F60FE3F6C5FE1306E0029946631EC70059
:1024C00005098146254603070900130707FD937593
:1024D000F70F6375B602368A030709001306A006D4
:1024E0006309C70A6341E6021306C0046303C70A0F
:1024F000130680066308C70801461DA8B386860335
:102500000509BA96C9B7130640076304C70813063E
:10251000A0076300C7089305C0060146631AB70009
:10252000830519000D466394E50005091146050968
:1025300003070900930500061308100663C4E500AD
:10254000130810049305700663C2E5069305500650
:102550006359B7169305700463CFE5021306500460
:102560006351C71693063004E31AD7E81840930C5A
:102570004400A30E0100230EE100BE8601472A8617
:102580006C0871A0830519000146E393E5FA090977
:1025900045B7050995B793063006E309D7FC63CE26
:1025A000E606930680056303D70289BD93063007CC
:1025B0006306D70463CDE6029306F006630BD70CDF
:1025C0009306000793E74700E31AD7E21147631B1E
:1025D000E60A1D04137784FF0C435043130487005D
:1025E000C28802C03E880147AA87C146B9A09306A7
:1025F00050076303D7069306800775B71840930CFE
:102600004400DA8511C3BA855287BE862A864E8574
:10261000EFF0DF98AA946684D5B311476314E602FD
:102620001D04137784FF0C43504313048700C288B2
:1026300002C03E880547AA87A9464E85EFF03FB302
:10264000AA946DBB0C40D28811042A87854629467E
:102650004E85EFF0BFA2EDB71147631FE6001D04E2
:10266000137784FF0C43504313048700C28802C0D1
:102670003E880147AA87C9B70C40D28811042A872F
:102680008146F1B70C40D28811042A878146414621
:10269000C1B711476310E6021D04137784FF0C4392
:1026A000504313048700C28802C03E880147AA87AE
:1026B000A14661B70C40D28811042A878146214681
:1026C00041BF1D04137684FF130486000C42504260
:1026D0003307D540C2887D173E884E85B687A94608
:1026E000EFF0FFBAB1BF397132833EDA2EC42AC689
:1026F0007010854748009A8506CE36D63AD842DC17
:1027000046DE3EC232C0EFF09FC8F24021618280B7
:10271000011122CC26CA06CE1C21AA840144DC87E2
:102720008307F100050499EFA9479305F1000546D9
:102730000145DC87EFF02FFE2285F2406244D2444F
:102740000561828005469305F1000145EFF0AFFC7D
:10275000B38784009C23DC87E1B7B687B2882A83DD
:102760002E88639B061463F8C50A4167636BE61AFB
:10277000B70700016360F63493568601E1471737C7
:1027800000001307A71C36971823BA9713070002F7
:102790001D8F19CB3398E500B357F500B318E60049
:1027A00033E807013313E50013D608013355C80297
:1027B00093960801C182935703013377C802B3850A
:1027C000A60242073368F700637AB8004698930779
:1027D000F5FF636418016365B8303E853308B8407F
:1027E0003357C8024203135303013378C802B38638
:1027F000E602420833686800637BD8004698930776
:10280000F7FF6365180179176363D8003E874205B7
:10281000598D8145828001E60547B358C70241675B
:1028200063E8E80EB707000163EAF82893D6880149
:10283000E147173700001307671136971423BE9638
:1028400093070002958FFDE7939E0801338715419A
:1028500013DF080193DE0E018545935703013355BD
:10286000E7033377E703B306D5034207D98F63FA4B
:10287000D700C6971307F5FF63E4170163E5D72672
:102880003A85958F33D7E703420313530301B3F718
:10289000E703B30ED703C207B3E7670063FBD701B3
:1028A000C6979306F7FF63E51701791763E3D7012E
:1028B00036874205598D828063E1D504C16763E1A3
:1028C000F604B707000163E3F61E13D786016148DB
:1028D0009737000093878707BA979823130E000253
:1028E0004297330EEE40631A0E0C63EDB61C33357F
:1028F000C5001345150081458280814501458280D0
:102900009307F00F63F3D71C13D786002148C9B78C
:102910001307F00FC686E37E17F193D68800A14710
:1029200009BF1307F00FB286E37BC7E49356860016
:10293000A147B1B5B398F80033D6D50013DF08012D
:10294000335EE6033397F500B356D500558F939E5B
:10295000080193DE0E013313F50093550701B3769A
:10296000E603B387CE03C206CD8E63FBF600C696A0
:102970001306FEFF63E4161763F2F616791EC69679
:102980009D8E33D6E60393170701C183B3F6E603A2
:102990003385CE02139706015D8F637BA7004697B0
:1029A0009307F6FF636817136376A71279164697A5
:1029B00093150E01098FD18D4DB5B357E600B3962F
:1029C000C601DD8E33D3E50013DF0601B357E30301
:1029D000939E060193DE0E013398C5013357E5003F
:1029E00033680701935808013316C6013373E303B4
:1029F000B385FE024203B368130163FBB800B698C7
:102A00001387F7FF63EAD80C63F8B80CF917B69888
:102A1000B388B84033D7E803420813580801B3F825
:102A2000E8033383EE02C208B3E5080163FB6500E7
:102A3000B6951308F7FF63EDD50863FB65087917B2
:102A4000B695C207416FD98F1307FFFFB3F6E700B2
:102A500093D80701718F4182B38EE602B38565403A
:102A6000B386C60213D80E013387E802BA96C2961F
:102A70003386C80263F3E6007A9693D80601469639
:102A800063E2C5026385C5003E858145828041675A
:102A90007D17F98EC206B3FEEE003315C501F6961A
:102AA000E374D5FE1385F7FF8145828013D70601B5
:102AB000414839BD93560601C147D1B193D60801AB
:102AC000C14785BB8145054582803687014809B5E8
:102AD000428785BF3E86E9BDBA871DBF328E4DB5A0
:102AE00079154698E5B97915C69761BBB6873288DE
:102AF0002A832E872E8E6391061463F0C50A4167E0
:102B00006376E61A1307F00FB2866375C700935613
:102B10008600A14717370000130747E336971823AD
:102B200093080002BA97B388F840638C0800B39505
:102B30001501B357F5003318160133EEB700331300
:102B4000150113560801B357CE0213150801418130
:102B500093560301337ECE02B307F502420E33676C
:102B6000DE006378F7004297636507016373F7003F
:102B700042971D8FB356C70293170301C183337762
:102B8000C7023305D5024207D98F63EBA708338507
:102B9000A740335515018145828001E6054733582A
:102BA000C7024167636BE80EB70700016364F82A48
:102BB00093568801E14717370000130727D9369746
:102BC000182393080002BA97B388F840639A081E46
:102BD000131E0801B385054113560801135E0E014B
:102BE00013570301B3D6C502B3F5C502B386C603B6
:102BF000C2054D8F6377D700429763640701636A0C
:102C0000D726158F3355C702420313530301337779
:102C1000C7023305C5034207B367670063F8A7001F
:102C2000C29763E5070163F3A700C2973385A74006
:102C300033551501814582802A88E3EFD5F4C167B9
:102C400063E5F604B707000163E2F62013D38601BB
:102C5000E14897370000938767CF9A9703CE070024
:102C600013030002469E3303C3416319030463E464
:102C7000B6006369C5003308C540958D333705013B
:102C80003387E5404285BA8582809307F00F63FB66
:102C9000D71C13D38600A1486DBF1307F00FC2865F
:102CA000E37B07F193568800A14731B7B7070001CE
:102CB0006366F61A93568601E147A9BDB357C6016C
:102CC000B3966600DD8EB3D8C50113D70601B3DE17
:102CD000E802139F0601B357C501135F0F01B395B7
:102CE0006500DD8D13D805013316660033156500C8
:102CF000B3F8E802B307DF03C20833E80801637BD7
:102D0000F80036989388FEFF6363D8166371F8164F
:102D1000F91E36983308F840B357E802C205C1815E
:102D20003378E802330FFF02131708014D8F637BDE
:102D3000E70136979385F7FF6369D7126377E71347
:102D4000F9173697C20EC162B3EEFE001388F2FF88
:102D5000B3F80E019355060193DE0E013378060198
:102D6000B38F08033307E74133880E0393D70F016E
:102D7000B388B802C298C697B38EBE0263F3070148
:102D8000969E41687D1893D50701B3F70701C207E6
:102D9000B3FF0F01F695FE976362B70A630EB7089B
:102DA000B307F5403335F500B305B740898D339E41
:102DB000C50133D567003365AE00B3D565008280A9
:102DC0003318180133D7F50013560801B356C7025C
:102DD000131E0801B357F500135E0E01B3951501DC
:102DE000DD8D93DE0501331315013377C702B30779
:102DF000DE0293160701B3E6D60163F8F600C29629
:102E000063E5060163F3F600C2969D8E33D7C602D2
:102E100093970501C183B3F6C6023307EE0293957B
:102E20000601DD8D63F8E500C29563E5050163F3F6
:102E3000E500C295998D6DB3E374F5F63386C7400E
:102E4000B3B7C700B6979D8DB28799BF13D306015C
:102E5000C14801B593560801C147B1BB935606015D
:102E6000C1474DB936838148EDB3AE87E1BDC68E0B
:102E700055B5429779B313D74501B7071000FD1731
:102E800013D846011377F77F9308F07F33FEB7001E
:102E9000AA8EF58FFD81328F1378F87FFD82630E45
:102EA0001703630D180129E3B368AE00631F080020
:102EB0005D8E01EE0143638C080421A8B3E8C700CE
:102EC0000943639608046DD305A0638408046385F1
:102ED000D50205438DCD7D531DA8B368AE000943CF
:102EE00063970802630AE802631408005D8E75D2D6
:102EF000E391D5FEE34FE8FC63490701E3EBC7FD2F
:102F0000630FFE0001436374FE00F1D505431A858B
:102F10008280EDFE7D53E5BF5D8E79DACDBFE36A39
:102F2000DFFB0143E3F5EEFFF5F175B739714AD8E0
:102F300013D945014ED652D456D29399C50006DE18
:102F400022DC26DA5AD05ECE1379F97F2A8A93D909
:102F5000C90093DAF501630D090E9307F07F63064C
:102F6000F9181354D5018E09B36934013704800070
:102F700033E4890093143500130919C08149814B4A
:102F800013D74601139AC6001377F77FB285135AF9
:102F9000CA0013DBF601630B07109307F07F63038E
:102FA000F7049357D6010E0A33EA4701130717C0F7
:102FB000B7078000B367FA00931536003A99814845
:102FC00033C76A01BD463A851308190063E836170E
:102FD00017360000130686878A09B29983A609006E
:102FE000B2968286B367CA001309F97F6399071204
:102FF00093E9290081458948E1B701479307F07FAC
:103000003704080081443204D20731807E075D8C8A
:10301000598CA285F250625426854259D254B25935
:10302000225A925A025BF24B216182805A853E8479
:10303000AE84C68B8947638DFB0E8D47E38FFBFA09
:1030400085472A87639EFB3881470144814465BFD9
:1030500033E4A90061C036C632C4638C092A4E85A8
:10306000EF10B04B2246B246AA87130755FF7544AE
:10307000938487FF198CB399990033548A00336481
:103080003401B3149A0013D746011309D0C0139A20
:10309000C6001377F77F3309F9408149814BB28528
:1030A000135ACA0013DBF601E31907EEB367CA002F
:1030B000B1C7630F0A22528532C4EF101046224670
:1030C0002A87930655FFF547930587FF958F331A97
:1030D000BA00B357F600B3E74701B315B60033099A
:1030E000E9401309D9C08148E1BD33E4A90001ECEE
:1030F000A14981441309F07F894B59B593E919001F
:103100008145854875BD4E84AA84B1491309F07F75
:103110008D4BBDB5914981440149854B95B593E9E6
:103120003900D2878D4869BD89475685E397FBF002
:103130002A879307F07F01448144F1B5C16E13865D
:10314000FEFF93D6040113DE0501F18CF18D338669
:1031500095023383B6029358060133059E021A95F1
:10316000AA98B382C60363F36800F692C16F138313
:10317000FFFF33F5670093D30701B3F76800C20779
:10318000337366003E933306950293D80801B387E4
:10319000A602135F0601B3849302BE94FA94B38E21
:1031A000760263F3F400FE9E416A9307FAFF935F91
:1031B0000401B376F400B3F9F4007D8EC18033844A
:1031C000D502C209338FD401B299CE98B307DE027B
:1031D000935E0401B385BF02AE97BE9E330EFE031D
:1031E00063F3BE00529EC1679385F7FF33F6BE00BE
:1031F0006D8C4206229693DE0E01B305D502769EB3
:103200003385AF0213D40501B386D302AA96A296E2
:10321000B38FF30363F3A600BE9F41657D15B3F73B
:10322000A600C2076D8DAA97B3855800B3B93501C2
:10323000FA97B2953384370133B6C500B30EC40193
:103240003385CE0033343401B3B7E701C18F33BEC9
:10325000CE0113D406013336C5003E943366CE004A
:103260009394950032947E94B3E4640026049356BC
:103270007501B3349000DD8193179500CD8C558C8A
:10328000DD8C9317740063DB070093D714008588E7
:103290009316F401DD8CD58C058042899307F93FA4
:1032A0006359F00893F6740081CE93F6F40011464A
:1032B0006388C60093864400B3B496002694B6840F
:1032C0009316740063D80600B70700FFFD177D8CC6
:1032D000930709409306E07F63CFF60E93D6340040
:1032E0009314D4012604D58C318093F7F77F21BB4A
:1032F000328532C4EF10702293065501F14713074F
:1033000005022246E3D1D7DC6115B317A60081453B
:10331000F9B3EF10902013075501F145930705020B
:103320002246B246E3D5E5D461153314AA008144A0
:1033300099BB85469D8EB1E71309E941B3972401F6
:10334000B3D4D40033192401B337F000B364990027
:10335000DD8C93F77400B356D40081CF93F7F4005B
:1033600011466388C70093874400B3B49700A696BC
:10337000BE849397860063D807048547014481443F
:1033800059B113068003E341D6CC7D46E356D6FA05
:103390000556B307F640930500023356F4006387E1
:1033A000B6001309E943B3172401DD8CB334900050
:1033B000D18C93F67400014499CA93F7F400114636
:1033C0008146E392C7FA139496003180F6068D8009
:1033D000D58C81470DB99307F07F0144814425B115
:1033E00042896DBD370710007D1701113373B70097
:1033F00093D84601758F935ED60122CC26CA0E0360
:1034000093D445019357D5010E0706CE4AC84EC640
:1034100093F8F87F130EF07F33E7EE0093F4F47F18
:1034200013D4F50133E36700131F3500FD82931EAB
:1034300036006380C81993C61600B385144163052E
:10344000D4126351B018638B081AB70780005D8FE0
:103450006381C4599307800363C4B734FD4763C5D0
:10346000B748930700028D8FB3D9BE003318F70019
:10347000B39EFE00336838013357B700B339D0012B
:10348000336838013303E340B3090F41B3373F01D9
:103490003306F3409317860063D30724370980006F
:1034A0007D1933792601630F092C4A85EF10F00648
:1034B000130785FF93070002998FB3D7F9003316DE
:1034C000E900D18FB399E9006344972A058F130669
:1034D0001700FD4663C5C63A13070002118FB3D625
:1034E000C9003398E9003397E700558F333800015E
:1034F000B369070133D6C700814493F7790081CFC0
:1035000093F6F90091476388F6009386490033B833
:1035100036014296B6899317860063D6071C138737
:1035200014009307F07F05886306F720B70780FF34
:10353000FD17F18F1398D70193D93900A607336887
:103540003801B1831377F77F9396C7005207B18292
:103550007E04D98EC18EF2406244D2444249B249BF
:103560004285B685056182806356B00A638A081277
:10357000B70780005D8F6387C42D9307800363C7FF
:10358000B718FD4763D2B73C138805FE93070002C6
:10359000B3590701638AF50093070004B385B74068
:1035A0003317B700B3EEEE003338D001336838017B
:1035B00095A2B367D7019385148099E393C616004B
:1035C000630AD404D1E19387140093F7E77F6399EA
:1035D000071EB367E3013368D70163920416638261
:1035E000073C63160842131835009316D30113588D
:1035F000380033E806019357330019A2B367D701A7
:103600006385071A9387F5FF638B073A638CC5239D
:10361000BE8589B56399051C9386140093F7E67FF0
:10362000C1EFB367E30163900436638D0744B3676A
:10363000D701639407460E051318D3010D81336833
:10364000A800935733006DA8B38598406397042072
:10365000B367E301638D07309387F5FF6389074004
:103660001305F07F6383A520BE859307800363C2A3
:10367000B72AFD4763C8B73C930700028D8F331804
:10368000F3003356BF00B317FF003368C800B339E7
:10369000F0003353B3003368380133076740B5ACEB
:1036A000B367D701638307109387F5FF638F071E06
:1036B0006380C52FBE85D1B59307F07F638BF60677
:1036C000FA9E33B6EE01B307E300B2971398F70101
:1036D00093DE1E00B369D80113D61700B68493F7A2
:1036E0007900E39F07E09317D60113D839003368B8
:1036F000F800A685935736001307F07F6380E50630
:10370000B207B18313F7F57F05883DBD3367D70155
:103710003338E000B309E801B3B7E9013386670045
:1037200093178600E3DD07FA85049307F07F639C17
:10373000F41805881307F07F8147014831B563917C
:1037400007106301083C131836009317D70113586C
:1037500038003368F800368493573700B367F800B1
:10376000E9DB01441307F07FB70708000148E9BB14
:10377000370680FF7D167D8E93F77900998CE39153
:1037800007D895B74E85EF10405913078501FD47BF
:10379000E3D2E7D2130685FFB397C90081492DB361
:1037A0003368D70133380001C5B1131835009317BA
:1037B000D301135838003368F800935733002DBFF6
:1037C000B309DF413309E34033363F013309C940D0
:1037D0009317890063CA072033E82901E31508CC51
:1037E0008147014431BFB385984063810414B70613
:1037F00080009307F07F3363D3006381F820930741
:10380000800363CCB722FD4763C9B72C930700023E
:103810008D8F3318F300B356BF00B317FF00336822
:10382000D800B339F0003353B300336838011A9726
:10383000B309D801B3B7D9013386E700C684CDB543
:10384000E31108F2131835009317D3011358380009
:103850003368F8009357330011B73705800093079A
:10386000F07F3363A300E392F8E00E061318D7014C
:103870000D823368C800935737003684C5B50517E5
:103880009306000233D7E700630AD60093060004CC
:103890003386C6403396C700B3E9C90033383001D8
:1038A000B369E800014681441DBDB309DF01B307D8
:1038B000E30033BFE9013386E701931786008544AF
:1038C000E3DF07E08944B70780FFFD17F18F13D7C7
:1038D000190013F81900336807019399F701B3E948
:1038E000090113D6170011B9138805FE93070002CA
:1038F000B3590701638AF50093070004B385B74005
:103900003317B700B3EEEE003338D0013368380117
:10391000A5BE3363E30133386000B3890E41B3B70A
:103920003E013306F740C6843684ADB6B367E30183
:10393000638707189387F5FF638C071C9306F07F56
:10394000638ED50ABE8565BD930700028D8FB3D9FE
:10395000BE003318F700B39EFE00336838013357BA
:10396000B700B339D001336838013A9365B31318FF
:1039700036009317D7011358380033E8070136840F
:103980009357370095BBBDCB3367D701E31B07DCEB
:103990000E051318D3010D813368A8009357330027
:1039A00075BBE30F08E2131836009317D7011358BD
:1039B00038003368F80036849357370091B3B30961
:1039C000DF41B307E340333F3F013386E74185449E
:1039D000D1B4131835009316D3011358380033E8C7
:1039E0000601935733009DBBB389EE413306674010
:1039F00033B93E0133092641368475B40E061318D7
:103A0000D7010D823368C8009357370081BBB309D3
:103A1000DF41B307E34033363F013386C740931796
:103A2000860063D7070AB389EE41B3076740B3BE88
:103A30003E013386D7413684C9B43363E30133385A
:103A40006000FDB3138805FE93070002B35903011C
:103A5000638AF50093070004B385B7403313B300BE
:103A6000336F6F003338E001336838017DB5B389B7
:103A7000EE41B3076740B3BE3E013386D74136847B
:103A8000854409BC131836009317D7011358380022
:103A90003368F80093573700A5B1B309DF01B307C6
:103AA000E30033BFE9013386E70193178600E3D8CB
:103AB00007C2B70780FFFD177D8E85440DB10E0646
:103AC0001318D7010D823368C800935737002DB102
:103AD00033E8C900E30608D019B1138805FE93073F
:103AE0000002B3590301638AF50093070004B3850C
:103AF000B7403313B300336F6F003338E0013368DE
:103B000038013DB301441307F07FB70708002DBC0F
:103B1000B309DF01B307E300B3BED9013386D70190
:103B200069BB3707100093D745019306F7FF93F75A
:103B3000F77F1308E03FED8E13D6F5016353F802CB
:103B40009305D04363D2F5028545918D3305B0408E
:103B500013D6F541B7050080B337A000918D9D8D38
:103B6000828001458145828013082043B3E5E60049
:103B70006354F8021387D7BA9387D7BC6345070409
:103B8000B315E500014565D23305A040B337A00069
:103B9000B305B0409D8D8280930630439D8E7D4756
:103BA000634CD7001387D7BE3397E5003355D50054
:103BB000598DB3D5D500C1BF130530411D8D33D507
:103BC000A5008145C9B7FD46135715009D8E335793
:103BD000D700B395F500D98D3315F5006DB70111F8
:103BE00006CE22CC26CA4AC84EC6B367B5009DCFC2
:103BF000AE84AA8913D9F50163CE05042684ADC429
:103C00002685EF1080119306E043898E9307304399
:103C100063CAD7089397C4002D464E8793F6F67F64
:103C2000B1836359A600130655FFB9A8014981461F
:103C300081470147B207F2406244D206B1837E0950
:103C4000D58FB3E72701D2444249B2493A85BE85B0
:103C5000056182803305A040B336A000B304B040B4
:103C6000958CAA892684C9FC4E85EF10000B2A8604
:103C70009306E04313050502898E9307A00293F68D
:103C8000F67F63C7A70C55061307B002098FB397D9
:103C9000C40033D7E9005D8F9317C700B183339712
:103CA000C90049BF9307604363DBD7022147098FEF
:103CB000930507FE63C2050CB3D5B4000147130694
:103CC000850193078503634C06083396C900814933
:103CD000B3E9C90033363001B3E9C5003A84A147DE
:103CE0004E8663C9A704B70780FFFD17937576005A
:103CF0003377F40085C59375F6001148638005039A
:103D00009305460033B6C5003297131687006351FA
:103D100006089306F0437D8F898E2E861355360054
:103D2000931797001316D7013367A600B18393F654
:103D3000F67F09B793078002930585FF898FB3D774
:103D4000F9003317B40033E4E7003396B90061BFDC
:103D50005516B397C900B207B1830147E1BD7D464F
:103D600013D819001D8E3358C8003396F4003366FB
:103D7000C800B399F900A9BF7D46198E9397140026
:103D8000B3D5E900B397C700DD8D33D7E40005BF95
:103D90002E8669B74111370780007D1713D875014A
:103DA00026C2935475013373A70093F4F40FB376CE
:103DB000B7004AC01378F80F1359F50106C622C49C
:103DC000FD819A8726854A86131E3300939E36000E
:103DD000B3880441630AB90E6350100D63040814DC
:103DE0009307F00F638BF414B7070004B3EEFE00E3
:103DF000ED4763C1172993070002B3871741B397B3
:103E0000FE00B3D81E01B337F000B3E7F800B307E4
:103E1000FE4013975700635E0718370400047D14B3
:103E20007D8C2285EF00706F6D15B317A400634879
:103E3000951A058D1304150013070002018F33979F
:103E4000E7003337E000B3D78700D98F814413F7F9
:103E5000770019C713F7F70091466303D70091075E
:103E600013975700635B071485041307F00F4A8606
:103E70006383E4169A07A58313F5F40FB240224436
:103E8000A6079314750113D59700458D7E069244BD
:103E90000249518D410182806399080A13871400F9
:103EA0001377E70F6317071463900422630D0E1E48
:103EB000E3860EFCB307DE411397570063500722D9
:103EC000B387CE412E8961B7635C100B630E08087F
:103ED0009307F00F6383F406B7070004B3EEFE0008
:103EE000ED4763C9171F93070002B3871741B397C4
:103EF000FE00B3D81E01B337F000B3E7F800F29725
:103F0000139757006357070A85041307F00F63845C
:103F1000E40CB706007E13D71700FD16858B758F4E
:103F2000D98F35B7638D0E08FD18B307DE41E382E4
:103F300008EE9307F00FE39DF4EA630D03080146D2
:103F40001305F00FB707400015BF33079840EDE8A1
:103F500063020E147D17630807189307F00F6319A7
:103F6000F80E2E893683D1BF638B0E04FD18B3077C
:103F7000DE01E38708F89307F00FE393F4F675BFCB
:103F800063950808850413F7E40F6313071263179A
:103F90000510630F0E14E3830EEEB307DE011397D3
:103FA0005700814463570700370700FC7D17F98FDE
:103FB000854413F77700E31F07E813D3370093070F
:103FC000F00FE38CF4F693179300A58313F5F40F29
:103FD0004A866DB54A861305F00F814745B5370708
:103FE00000FC7D17F98F13F77700898CE31407E63F
:103FF000E9B73304DE419317540063C3070CE3129F
:1040000004E201460145814795BD33079840ADC4A0
:104010009307F00FE308F8F4B7070004336EFE00CF
:10402000ED4763CCE70C93070002998FB317FE00AE
:104030003357EE00B337F000D98FF697C284C9B575
:104040009307F00FE30FF8F0B7070004336EFE009C
:10405000ED4763C3E70893060002998EB316DE00AE
:10406000B357EE003337D000D98FB387FE40C284F8
:104070002E8945B3854761BB630E0E067D17B307D6
:10408000DE01C284E30E07E69307F00FE31AF8F8A7
:10409000368365B53683C2842E8915B7E3040EECEA
:1040A000E38D0EE869BD638D0E022E86B687F9B3E7
:1040B0009307F00FE381F4F2B307DE018583D5BDEA
:1040C0003384CE412E89B1BBE31C0EFCE3890EE69E
:1040D0002E8949BD854725B5854741BFE39B07EC40
:1040E0000146814761BBB387CE41C2842E8915B397
:1040F000B68769B33683C284D9B585473DBF397168
:10410000935775014AD856D25ECE931A950013592B
:10411000F50106DE22DC26DA4ED652D45AD093F7C9
:10412000F70F93DA9A00CA8B638207121307F00F16
:104130006384E7128E0A37070004B3EAEA00138AA1
:1041400017F80144014B93D775019394950093F7A9
:10415000F70FA58093D9F501FDC71307F00F63870B
:10416000E7028E04938717F837070004D98C330AC7
:10417000FA408146558C17170000130727710A046F
:104180003A941C4033493901BA978287130A1AF0CE
:10419000F9E88946558C17170000130727730A049E
:1041A0003A941C4033493901BA9782870149130771
:1041B000F00FB707400013959700F2506254931721
:1041C000770125817E095D8D33652501D2544259E1
:1041D000B259225A925A025BF24B21618280130734
:1041E000F00F8147C9BFA68ACE8B368B8947630BF8
:1041F000FB1A8D47E30CFBFA8547630AFB0A13079A
:10420000FA0713F91B006357E01293F77A0099C776
:1042100093F7FA0091466383D700910A93974A0077
:1042200063D90700B70700F8FD17B3FAFA001307C0
:104230000A089307E00FE3C4E7FA93976A00A5839F
:104240001377F70F8DBFB9E48546A9B763940A02C7
:104250001144014A054BC5BD63990A002144130A64
:10426000F00F094BCDB58D4631B73144130AF00F2D
:104270000D4BD1BD56852EC6EF00302A9307B5FFF2
:10428000B39AFA009307A0F8338AA7400144014B80
:10429000B24555BD2685EF0050281307B5FFB3077B
:1042A000AA00B394E400138A67078146E1B513F9C5
:1042B0001B000147814701B74166139554007D16E5
:1042C00093570501698E63FA9A0AB3D5FA027D1AEB
:1042D000D68601473388C502B3F6F602C206558F6B
:1042E000637B07012A979386F5FF6368A70A6376C5
:1042F000070BF9152A9733070741B356F7023377AF
:10430000F702B38AC6029317070163FB5701AA9706
:104310001387F6FF63E1A70863FF5707F916AA970B
:10432000C205B38A5741D58DB33A5001B3EA55015E
:10433000CA8BF1B58546998E11C76D4601478147F5
:10434000E34BD6E6130AEA09339A4A01B3D7DA00F7
:10435000B33A4001B3E7570113F7770019C713F7D2
:10436000F70091466303D7009107139757006348FE
:1043700007029A07A58301473DBD93D61A00B3D51E
:10438000F6021397FA0141833388C502B1B7CE8B89
:10439000368B814AA1BDBA8661B7B685A9BF0547EC
:1043A000814711BD13F91B001307F00F814721B599
:1043B00093567501B7078000FD1713D6750193F664
:1043C000F60F1308F00FB3F8A7001357F501ED8FA0
:1043D0001376F60FFD8163810603630C06018DE2FF
:1043E00011E2B1C3638E08026305B70405451DE7FA
:1043F0008280F5D779558280E39E08FE6309D60254
:1044000011E2EDD7E314B7FEE342D6FE63C7C60060
:10441000E3EE17FD0145E3FDF8FC01E77D558280E1
:10442000F5DD054582800145E39208FC8280F9DBD9
:10443000D1B78146E1BF93567501B7078000FD17DC
:1044400013D6750193F6F60F1308F00FB3F8A70013
:104450001357F501ED8F1376F60FFD816387060381
:104460006309060185EA11EA89EB0145639B0800AF
:1044700082800945F5FFE5DA31A8638C0802630004
:10448000B704054575D77D558280094563980802B4
:104490006304D60211E2F5D7E315B7FEE343D6FE77
:1044A00063C7C600E3EF17FD0145E3F3F8FC19E32A
:1044B000D9BFF1D905458280E5D3828082808146CB
:1044C000C5B7797122D4135475014ECE52CC9319CD
:1044D000950006D626D24AD056CA5AC81374F40F8D
:1044E00093D99900135AF50169C49307F00F630833
:1044F000F40E9397390037070004B3E9E70013047B
:1045000014F88144014B13D77501939A95001377E2
:10451000F70F93DA9A0013D9F50145CF9307F00FFF
:10452000630CF7028E0A130717F8B7070004B3EA03
:10453000FA003A94014633452A01BD47AA869305FD
:10454000140063E09710171700001307273C8A0434
:10455000BA949C40BA9782871304F40F63960A0CAE
:1045600093E424000946C1BF01451307F00FB707C4
:104570004000B2502254A6075E07A5837E05D98F5E
:1045800092540259F249624AD24A424B5D8D4561CA
:104590008280CA86D689328B8947630FFB088D4794
:1045A000E304FBFC854736856310FB1A014781470E
:1045B000C9B7639D090413D77501939A95001377C2
:1045C000F70F91440144054B93DA9A0013D9F50192
:1045D00031F7639D0A0093E414000546A9BF639276
:1045E0000902A1441304F00F094B31BF568535274A
:1045F0009307B5FF098CB39AFA001304A4F8014697
:104600001DBFB1441304F00F0D4BF5BD4E852EC6F2
:1046100029279307B5FF1304A0F8B399F900098C73
:104620008144014BB245C5B593E434000D4621B732
:104630008947D286E315FBF636851307F00F8147CD
:104640000DBF41639306F3FF13D6090193D80A0106
:10465000B3F7D900B3FADA0033885703B389F80205
:1046600013570801B30A5603D6994E97330616031B
:10467000637357011A96C167FD17B376F700337855
:10468000F800C206C2969399660093570701B339A2
:104690003001E982B2979A07B3E6D900B3E9D700AF
:1046A0009397490063D9070013D7190093F71900AE
:1046B000B369F7002E841307F4076350E00493F7FF
:1046C000790099C793F7F90091466383D700910960
:1046D0009397490063D90700B70700F8FD17B3F9AE
:1046E000F900130704089307E00F63CBE7049397DF
:1046F0006900A5831377F70FADBD8547B386E74003
:1047000011C76D4601478147E345D6E61307E40923
:104710003397E9003337E000B3D7D900D98F13F7C7
:10472000770019C713F7F70091466303D700910785
:1047300013975700634C07009A07A583014715BDDF
:104740001307F00F814735B52E84B5B7054781476C
:104750000DB53707800041117D179356750113D8A9
:104760007501B377A70093F6F60F935EF5013376E4
:10477000B70026C24AC01378F80F06C622C4130336
:10478000F00F3E8E3689F684139F3700FD81131596
:104790003600B38806416302681093C51500638C28
:1047A000BE106354100D631008106304051EFD183D
:1047B000B307AF40638608029307F00F6388F616CD
:1047C000ED4763C717291307000233071741331753
:1047D000E500B35715013337E000D98FB307FF4029
:1047E000139757006351071A370400047D147D8C1A
:1047F000228525236D15B317A400634E251B3305B1
:1048000025411304150013070002018F3397E700B9
:104810003337E000B3D78700D98F014913F777000A
:1048200019C713F7F70091466303D7009107139751
:104830005700635E0714930619001307F00F93FEE9
:1048400014006386E6169A07A58393F6F60FA6076B
:10485000B240224413D59700DE069397FE01558D92
:10486000924402495D8D410182806392080A138758
:1048700016001377E70F631B071463940622630285
:104880000F2071D5B307AF40139757006355072228
:10489000B307E5410149AE8451B7E30005F0638AEF
:1048A000BE0AE35410FD9307F00F6381F608B707C3
:1048B00000045D8D31B7635E10096301080893073A
:1048C000F00F6385F606B70700045D8DED4763C002
:1048D000171F13070002330717413317E500B357BB
:1048E00015013337E000D98FFA9713975700635CAF
:1048F000070805091307F00F630BE90AB706007EE6
:1049000013D71700FD16858B758FD98F01BF33071D
:10491000D84063950610630D0F147D176303071AC3
:104920009307F00F6314F810AE84328E630F0E06F7
:10493000814E9306F00FB707400011BF39C9FD182B
:10494000B307AF00E38308FA9307F00FE390F6F89C
:10495000F1BF63990808138916001377E90F6316EE
:104960000712639B061063030F16E30205EEB307FD
:10497000AF0013975700014963570700370700FC42
:104980007D17F98F054913F77700E31C07E813DE5D
:1049900037009307F00FE30BF9F893179E00A583F8
:1049A0009376F90F93FE14005DB593FE1400930601
:1049B000F00F814769BD370700FC7D17F98F13F7AA
:1049C00077003309A940E31E07E4D1B73304AF40B1
:1049D0009317540063C3070CE31C04E0814E814627
:1049E0008147B5B53307D840B5C69307F00FE30E3E
:1049F000F8F2B7070004336FFF00ED4763CDE70C13
:104A000093070002998FB317FF003357EF00B337B6
:104A1000F0005D8FB307A7004289C1BD9307F00F77
:104A2000E304F8F0B7070004336FFF00ED4763C2FB
:104A3000E70893070002998FB317FF003357EF0081
:104A4000B337F000D98FB307F5404289AE8449BB34
:104A5000854769B3630E0F067D17B307AF00428920
:104A6000E30507E89307F00FE319F8F8328E7DBDF0
:104A7000328E4289AE8431BFE3090FEAE30805EACA
:104A800045BD0DCDAE8EB287D9B39307F00FE300CD
:104A9000F9F2B307AF008583FDB53304E541AE8479
:104AA00081BBE31D0FFCE30505E8AE84BDBD854772
:104AB00025BD854749BF0149E39707EC814E8147F2
:104AC00079B3B307E5414289AE8419BBB28741B3DC
:104AD000328E42897DBD054735BF411106C622C4CD
:104AE00026C20DCD9357F54133C4A7001D8CAA846F
:104AF000228525249307E0093387A740930760099F
:104B0000FD8063CCE702A1469377F70F63D5A6003B
:104B100061153314A4002604258021A08144814717
:104B20000144260413559400B2402244DE07FE04DB
:104B30005D8D458D9244410182809307900963DD2C
:104B4000E7009307B5019546B317F400898E3354F7
:104B5000D400B337F0005D8C954763D6A700930768
:104B6000B5FF3314F400B70600FCFD16937774000C
:104B70003376D40085C39377F4009145638CB700F6
:104B800011069317560063D707009307F009758E37
:104B90003387A7401314660025809377F70F51B72A
:104BA000411106C622C415CD2A84852A9307E0093F
:104BB0003387A7409307600963C0E704A146937752
:104BC000F70F63D5A60061153314A40026042580D1
:104BD000260413559400B2402244DE075D8D410146
:104BE00082800144260413559400B2402244814738
:104BF000DE075D8D410182809307900963DDE70048
:104C00009307B5019546B317F400898EB337F000CA
:104C10003354D4005D8C954763D6A7009307B5FF46
:104C20003314F400B70600FCFD1693777400337656
:104C3000D40085C39377F4009145638CB7001106C7
:104C40009317560063D707009307F009758E3387D3
:104C5000A740131466002580260413559400B24023
:104C600022449377F70FDE075D8D41018280135751
:104C700075011377F70F41119307170022C426C25D
:104C80001314950006C693F7E70F25809354F5019A
:104C900085C793573400130707387604B2075207C5
:104CA000B1831395F401D98FC98FB2402285224474
:104CB0009244BE854101828005EB39C42285B1282A
:104CC000A94763C6A7042D47098F9307550133579A
:104CD000E4003314F4009317C70013079038098FCA
:104CE000B1831377F77F5DBF01CC13573400B7074B
:104CF0000800D98FB2077604B1831307F07F79BF1C
:104D00001307F07F814759BF0147814741BF130710
:104D100055FF3317E40001447DBFC167637CF50292
:104D20009307F00F1307000263EBA700971700002B
:104D30009387C7C1AA9788233305A7408280218122
:104D400097170000938787C0AA9788236147330588
:104D5000A7408280B7070001636DF5006181971756
:104D600000009387A7BEAA97882321473305A74051
:104D70008280418197170000938747BDAA978823B7
:104D800041473305A7408280294681458DA215C23F
:104D90007D160147B307E500B386E5009C23942206
:104DA0006396D7006304C7000507EDF73385D74046
:104DB00082800145828079714AD04ECE06D622D4B7
:104DC00026D2AA892E899304190003C4F4FF3A85D8
:104DD00036C632C42EC23AC0152A22951C3102476B
:104DE0009245A18B2246B246D1E39307D0026311CC
:104DF000F4089C20054393042900E5C641476390CD
:104E0000E60213070003639CE7009C20130780055C
:104E100093F7F70D6392E70C9C30C1468904B708FD
:104E200000806314030093C8F8FF33FFD8020148E1
:104E30000145A54FE54EFD5233DED802138707FD2D
:104E400063E3EF04BA8763DED704630D58007D582F
:104E5000636AAE006314AE006346FF000548338505
:104E6000A6023E95850483C7F4FFC9BF2689A1BF6A
:104E70009307B0026305F400A2870143BDBF9C20E5
:104E800093042900DDBF1387F7FB63E5EE009387EA
:104E900097FC55BF1387F7F963E5EE00938797FA00
:104EA0005DB7FD57631FF8009307200223A0F900A8
:104EB000468519EEB250225492540259F249456186
:104EC0008280630403003305A0406DD663040800AC
:104ED0009385F4FF0CC2F9BF93070003A9F2A14622
:104EE0003DBF13070003E382E7F2A9460DBF938796
:104EF000C1809C43B286985309E717B7FF1F130779
:104F000067182E86AA853E856FF0FFEA0325C50E39
:104F1000828091ED41116C00014501CA795591C61D
:104F20001C229CC108223335A0004101828001452A
:104F300009CA795599C61C229CC108223335A000A4
:104F40008280828089CD9307F00F63F7C7009307B3
:104F5000A0081CC17D55828090A105458280014535
:104F6000828000000000000000000000002F000010
:104F700000000700070000147F147F1400242A7F1C
:104F80002A1200626408132300364955225000009B
:104F90000503000000001C224100000041221C000B
:104FA0000014083E08140008083E0808000000A08D
:104FB0006000000808080808000060600000002089
:104FC00010080402003E5149453E0000427F400067
:104FD000004261514946002141454B3100181412ED
:104FE0007F10002745454539003C4A4949300001BA
:104FF0007109050300364949493600064949291E09
:10500000000036360000000056360000000814226A
:10501000410000141414141400004122140800026A
:105020000151090600324959513E007C1211127C8F
:10503000007F49494936003E41414122007F4141BC
:10504000221C007F49494941007F09090901003EAE
:105050004149497A007F0808087F0000417F4100EC
:10506000002040413F01007F08142241007F404062
:105070004040007F020C027F007F0408107F003E4A
:105080004141413E007F09090906003E4151215E30
:10509000007F091929460046494949310001017F2D
:1050A0000101003F4040403F001F2040201F003FC3
:1050B0004038403F00631408146300070870080775
:1050C00000615149454300007F41410000552A5588
:1050D0002A55000041417F00000402010204004003
:1050E0004040404000000102040000205454547825
:1050F000007F484444380038444444200038444445
:10510000487F00385454541800087E0901020018E2
:10511000A4A4A47C007F080404780000447D40001F
:10512000004080847D00007F102844000000417F03
:105130004000007C04180478007C080404780038DF
:105140004444443800FC242424180018242418FC67
:10515000007C0804040800485454542000043F44D0
:105160004020003C4040207C001C2040201C003C93
:105170004030403C004428102844001CA0A0A07CE3
:10518000004464544C44141414141414000000001B
:10519000000000000000000000000000000000F817
:1051A00000000000000000333000000000100C067A
:1051B000100C0600000000000000000040C0784015
:1051C000C0784000043F04043F040400007088FCE1
:1051D00008300000001820FF211E0000F008F00039
:1051E000E018000000211C031E211E0000F00888AA
:1051F000700000001E2123241927211010160E0014
:10520000000000000000000000000000000000E0BE
:1052100018040200000000071820400000020418D3
:10522000E00000000040201807000000404080F02F
:10523000804040000202010F01020200000000F065
:10524000000000000101011F010101000000000039
:105250000000000080B070000000000000000000AE
:105260000000000000010101010101010000000037
:1052700000000000003030000000000000000000CE
:1052800080601804006018060100000000E01008AB
:105290000810E000000F102020100F00001010F880
:1052A000000000000020203F2020000000700808BF
:1052B000088870000030282422213000003008883F
:1052C000884830000018202020110E000000C02067
:1052D00010F8000000070424243F240000F8088888
:1052E000880808000019212020110E0000E0108815
:1052F00088180000000F112020110E000038080847
:10530000C83808000000003F000000000070880856
:1053100008887000001C222121221C0000E01008D7
:105320000810E0000000312222110F00000000C030
:10533000C0000000000000303000000000000080CD
:1053400000000000000080600000000000008040BD
:1053500020100800000102040810200040404040D6
:105360004040400004040404040404000008102029
:10537000408000000020100804020100007048086E
:105380000808F0000000003036010000C030C828D6
:10539000E810E0000718272423140B000000C03891
:1053A000E0000000203C23020227382008F888880B
:1053B00088700000203F202020110E00C030080817
:1053C00008083800071820202010080008F80808EE
:1053D0000810E000203F202020100F0008F88888E7
:1053E000E8081000203F20202320180008F88888B3
:1053F000E8081000203F200003000000C03008082B
:105400000838000007182020221E020008F80800B3
:105410000008F808203F210101213F20000808F87A
:10542000080800000020203F20200000000008089D
:10543000F8080800C08080807F00000008F888C05D
:1054400028180800203F20012638200008F808000E
:1054500000000000203F20202020300008F8F80045
:10546000F8F80800203F003F003F200008F830C057
:105470000008F808203F200007183F00E010080847
:105480000810E0000F10202020100F0008F8080876
:105490000808F000203F210101010000E010080889
:1054A0000810E0000F18242438504F0008F88888AE
:1054B00088887000203F2000030C3020007088088E
:1054C000080838000038202121221C00180808F89C
:1054D000080818000000203F2000000008F808001D
:1054E0000008F808001F202020201F0008788800EE
:1054F00000C83808000007380E010000F80800F85E
:105500000008F800033C0700073C03000818688007
:105510008068180820302C03032C30200838C8007D
:10552000C83808000000203F2000000010080808CC
:10553000C83808002038262120201800000000FE6E
:10554000020202000000007F40404000000C30C01A
:1055500000000000000000010638C0000002020246
:10556000FE000000004040407F00000000000402F8
:105570000202040000000000000000000000000023
:105580000000000080808080808080800002020413
:10559000000000000000000000000000000080800B
:1055A000808000000019242222223F2008F8008079
:1055B00080000000003F112020110E00000000803C
:1055C00080800000000E11202020110000000080CB
:1055D0008088F800000E112020103F2000008080FD
:1055E00080800000001F222222221300008080F011
:1055F000888888180020203F20200000000080803C
:1056000080808000006B94949493600008F8008080
:1056100080800000203F210000203F2000809898DB
:10562000000000000020203F20200000000000803B
:105630009898000000C08080807F000008F800007B
:1056400080808000203F24022D302000000808F8D0
:10565000000000000020203F20200000808080808B
:1056600080808000203F20003F20003F808000801D
:1056700080800000203F210000203F20000080802B
:1056800080800000001F202020201F0080800080DC
:105690008000000080FFA12020110E00000000808B
:1056A00080808000000E112020A0FF80808080007C
:1056B0008080800020203F212000010000008080A9
:1056C000808080000033242424241900008080E09E
:1056D000808000000000001F20200000808000006B
:1056E00000808000001F202020103F20808080004C
:1056F0000080808000010E3008060100808000805C
:10570000008080800F300C030C300F000080800080
:10571000808080000020312E0E31200080808000AB
:105720000080808080818E7018060100008080805B
:10573000808080000021302C2221300000000000F9
:10574000807C020200000000003F4040000000009A
:10575000FF00000000000000FF0000000002027CCB
:10576000800000000040403F0000000000060101F2
:105770000202040400000000000000000000C84213
:10578000000080350000484300004842000080BF10
:10579000D1221B3F66A6A54300409C46713D8A3E30
:1057A0004050554D503A00004056414C56453A0045
:1057B000404F55543A000000404C4556454C3A2560
:1057C0002E32662C252E31662C252E31662C256432
:1057D0000D0A00000000D841546F776572204D6FAC
:1057E0006E69746F72000000546F776572205265A5
:1057F0006164790D0000000054656D703A20202529
:105800002E3166432020200048756D3A2020202547
:105810002E31662525202020000000004C6576658D
:105820006C3A20252E3166636D2020200000000098
:1058300050756D703A202025642525202020000019
:10584000286E756C6C290000F4D8FFFFE6D7FFFFC7
:10585000E6D7FFFFE4D7FFFFECD7FFFFECD7FFFF52
:10586000B2D7FFFFE4D7FFFFECD7FFFFB2D7FFFFB0
:10587000ECD7FFFFE4D7FFFFE0D8FFFFE0D8FFFF42
:10588000E0D8FFFFB2D7FFFF30EAFFFF56E9FFFF86
:105890002AEAFFFF5EE9FFFF2AEAFFFF24E9FFFF94
:1058A0002AEAFFFF5EE9FFFF56E9FFFF56E9FFFF27
:1058B00024E9FFFF5EE9FFFF64E9FFFF64E9FFFF02
:1058C00064E9FFFF24E9FFFF16E9FFFF16E9FFFF88
:1058D000EAE9FFFFC6EAFFFFEAE9FFFFE4E8FFFFAE
:1058E000EAE9FFFFC6EAFFFF16E9FFFF16E9FFFF3F
:1058F000E4E8FFFFC6EAFFFF24E9FFFF24E9FFFF1A
:1059000024E9FFFFE4E8FFFF3AEDFFFF8CECFFFF27
:105910008CECFFFF8AECFFFF90ECFFFF90ECFFFFA9
:1059200060ECFFFF8AECFFFF90ECFFFF60ECFFFFF5
:1059300090ECFFFF8AECFFFF28EDFFFF28EDFFFF53
:1059400028EDFFFF60ECFFFF0001020203030303E9
:1059500004040404040404040505050505050505FF
:1059600005050505050505050606060606060606DF
:1059700006060606060606060606060606060606C7
:1059800006060606060606060707070707070707AF
:105990000707070707070707070707070707070797
:1059A0000707070707070707070707070707070787
:1059B0000707070707070707070707070707070777
:1059C000070707070707070708080808080808085F
:1059D0000808080808080808080808080808080847
:1059E0000808080808080808080808080808080837
:1059F0000808080808080808080808080808080827
:105A00000808080808080808080808080808080816
:105A10000808080808080808080808080808080806
:105A200008080808080808080808080808080808F6
:105A300008080808080808080808080808080808E6
:105A4000080808080808080843000000504F534998
:105A5000580000002E0000000020202020202020E0
:105A6000202028282828282020202020202020200E
:105A7000202020202020202020881010101010101E
:105A8000101010101010101010040404040404046A
:105A90000404041010101010101041414141414104
:105AA00001010101010101010101010101010101E6
:105AB00001010101101010101010424242424242F6
:105AC00002020202020202020202020202020202B6
:105AD000020202021010101020000000000000005E
