:040000006F10B0537A
:1000040000000000000000007619000078190000CC
:1000140000000000381D0000000000000000000087
:10002400381D0000381D0000000000000000000022
:10003400381D000000000000381D00000000000012
:10004400381D0000381D0000381D0000381D000058
:10005400381D0000381D0000381D0000381D000048
:10006400381D0000381D0000381D0000381D000038
:10007400381D0000381D0000381D0000381D000028
:10008400381D0000381D0000381D0000381D000018
:10009400381D0000381D0000381D0000381D000008
:1000A400381D0000381D0000381D00002213000018
:1000B4001E080000381D0000381D0000381D000017
:1000C400381D0000381D0000381D0000381D0000D8
:1000D400381D0000B6110000CA0900002606000001
:1000E400381D0000381D0000381D0000381D0000B8
:1000F400381D0000381D0000381D0000381D0000A8
:1001040000000000381D0000381D0000381D0000EC
:10011400F8180000381D0000381D0000381D0000CC
:10012400381D0000381D0000381D0000381D000077
:10013400381D0000381D0000381D0000381D000067
:10014400381D0000381D0000381D0000381D000057
:10015400381D0000381D0000381D0000381D000047
:10016400381D0000381D0000381D0000381D000037
:10017400381D0000381D0000381D0000381D000027
:10018400381D0000381D0000381D0000381D000017
:10019400381D0000381D0000381D0000381D000007
:1001A400000000000000000000000000000000004B
:0C01B4000000000000000000000000003F
:1001C000397101436EC619A0397141536AC866CAB4
:1001D00062CC5ECE19A0397101535AD056D252D496
:1001E0004ED64AD826DA22DC06DE3301614082820E
:1001F00041114AC026C222C406C68282B24D4101C4
:10020000024D924C224CB24B4101024B924A224A7F
:10021000B2494101024992442244B24041018280E4
:100220003D432A876373C3029377F700BDEFADE5C3
:10023000937606FF3D8ABA960CC34CC30CC74CC7D5
:100240004107E36BD7FE11E28280B306C3408A0602
:100250009702000096966780A6002307B700A306C2
:10026000B7002306B700A305B7002305B700A30412
:10027000B7002304B700A303B7002303B700A3020A
:10028000B7002302B700A301B7002301B700A30002
:10029000B7002300B700828093F5F50F9396850091
:1002A000D58D93960501D58D61B79396270097025A
:1002B000000096968682E78086FA9680C1171D8F89
:1002C0003E96E374C3F8A5B7EFF29FF279718545C6
:1002D000214502CA02CC02CEEF10305993070040EC
:1002E000FC82371401408D473ECC4C08E147130592
:1002F00004C03ECEEF10102D856793870780FC82E7
:100300004C089147130504C03ECEEF10B02B854535
:100310003705040002D002D202D402D6EF10D05624
:10032000F16737540040938707203ED00C10B70781
:100330000C00130504803ED402D223160102EF10F4
:10034000B07F05461305048093055052EF20200925
:10035000854513050480EF202007930770132317AA
:1003600001007C8685475C87680085473EC8EF10A2
:10037000B032456145B5EFF2BFE7375400409375A1
:10038000F50F13050480EF20E008130404809305A3
:1003900000082285EF2000097DD9ADBDEFF25FE5B1
:1003A0002A840305040011E1B5B50504E937D5BF7A
:1003B000EFF21FE41971376600002E87AA86130634
:1003C0008648930500080A85EF20101B0A85F93737
:1003D000376500008A8513058549EF2030150961CE
:1003E00015BDEFF2FFE0197137660000AA8613060B
:1003F000C642930500080A85EF2010180A85793F48
:10040000376500008A8513058543EF2030120961A6
:1004100011B5EFF27FDB83D681BF138481BF5A20F1
:100420002A206D7136DE3ADCEF40D066B7670000F7
:1004300083A5C744EF40C035EF40B0722AD80A24E4
:100440002EDAEF403065B767000083A50745EF401F
:100450002034EF4010712A892A24AE89EF4090633E
:10046000B767000083A54745EF408032EF40706FCB
:100470002A8A03A54185AE8A035CC400EF40706EF2
:100480002A8403A54188AE84EF40B06DAE8B2A8BE1
:10049000EF00103FEF40F06C4258D2586257F256CE
:1004A000376600002AD42ED65AD05ED222CC26CE71
:1004B00062C852C456C64AC04EC21306864593054A
:1004C000800CA800EF20500BA800C93D51610DBB66
:1004D000EFF21FD2011137660000AA86130606420A
:1004E000930500020A85EF2030090A85453D056124
:1004F00015B3EFF2FFCF1D71AA84EF40707E8947DC
:1005000063FBA702B76500002A841D469385054B4F
:100510002685EF40107E15E10387740093070003E2
:1005200005466303F700014637150140C145130531
:100530000580EF1070152561F1B9B765000011460F
:100540009385854B2685EF40D07A0DE13765000015
:100550001305054CEF20807DB76500009385C54DE0
:100560000810EF40F07608102921F1B7B7650000B8
:1005700011469385854E2685EF40B0770DE1B7652E
:1005800000009385054F0810EF4090740810D526A1
:10059000376500001305C54FEF20407969BF791416
:1005A0002286938514000810EF4030779C10B765C1
:1005B00000003E949308C1015C08130881011808EB
:1005C00074003000938545510810230004FCEF406F
:1005D000F06A99476313F5022247B7070020938713
:1005E000070098C33247D8C3424798C75247D8C775
:1005F000624798CB7247D8CB3DBF376500001305E3
:100600008552EF20007A05BFEFF29FBE1384418B25
:100610008347240481CB1385418BE13D23100404DF
:1006200023010404C5BE411122C637540040B70758
:100630000020930550521305048023840720EF10F7
:10064000105F25C513050480EF10505D9387418B23
:1006500083D607041375F50F81EE13070004631E9C
:10066000E502054788A32390E7042381070435A00A
:100670001307E003636FD702138716004207BE9685
:10068000418388A22390E704A9466318D5003E97CA
:100690002300070005472381E704375500409305F1
:1006A000505213050580EF10505C32444101730035
:1006B00020302390070455BF9377350099E79307BF
:1006C0004006B367F502054799E7930700193365BC
:1006D000F502133715003A85828089476394F50245
:1006E000EFF21FB141112EC6C13FF547B24501E9F6
:1006F000FD1599679387873C8A05BE959C413E8589
:10070000410109BEFD1599679387873C8A05BE950F
:100710009C413E858280EFF21FAC83C70183397113
:10072000A5C337040020130704005C4B9306B003F5
:100730001389018385075CCB1304040063DFF60093
:100740001848232A04005C440507032A84008329EF
:100750000400444063C8E60218C883284401032803
:1007600004015C44184454401040B7650000938570
:10077000853F0A85EF20C05D0A85E52A2300090030
:10078000216161B42328040085075D476344F700B5
:100790005CC4E1B7A6854E85050A23260400353FD3
:1007A00063454501232444014DBF85471CC485048E
:1007B00031476344970044C04DB785095CC023208E
:1007C000340161BFEFF2DFA20111AA842E84054536
:1007D0008545EF10700B7D144C08FD143705004063
:1007E000E484E082231D0100231B0100EF1050135D
:1007F0000546854537050040EF10F0229307C002FB
:100800007C868D475C87680085473EC8EF10C068CE
:10081000854537050040EF10901F0561E5BA41118D
:1008200085453705004022C626C4EF10B02E25C5E9
:10083000138481831C4085453705004085071CC013
:100840009387418398439304803E050798C3EF1034
:10085000F02D1840337797021DEFEF0060771C40B2
:10086000B3F797028DEB05472388E18283C7C188E0
:10087000850793F7F70F2386F1880547639DE70007
:10088000B76500009385C5551385818FEF405044AF
:100890001385818FF9283244A2444101730020302E
:1008A000EFF21F9579718545114502CA02CC02CE3F
:1008B000EF10A07B9147FC82371401408D473ECC5E
:1008C0004C08E147130504803ECEEF10A04FA1472E
:1008D000FC824C089147130504803ECEEF10804EF9
:1008E00085453705020002D002D202D402D6EF10AD
:1008F000A079F16737440040938707200C103ED061
:1009000013050440B7070C003ED402D2231601029F
:10091000EF10902293076013231701007C86854710
:100920005C87680085473EC8EF10005705461305F1
:10093000044093055052EF10902A8545130504405A
:10094000EF10902845616FF0FF8CEFF27F8A3744FB
:1009500000409375F50F13050440EF10B02B1304FE
:100960000440930500082285EF10D02B7DD96FF04D
:100970007F8AEFF2FF872A840305040009E97D5589
:10098000E9377D55D9377D55C9376FF0BF880504E4
:100990006D3FDDB79387C19523A007002392070021
:1009A00082809387C195D6231307301F636ED700CB
:1009B000BA238506D6A33386E70068A20507130687
:1009C000401F3367C702BAA38280411122C6374451
:1009D0000040930550521305044026C4EF10302503
:1009E00005C513050440EF107023AA8493055052E7
:1009F00013050440EF10702713F5F40F5D3793874C
:100A0000C1839823050798A33244A244410173008F
:100A100020309387C1959A233A951307401F336579
:100A2000E502AA97E82382809387C195D62363675E
:100A3000D500EFF2EFFBB93F6FF0CFFD19C99A2354
:100A40001306401FFD1605073367C702D6A39AA3F6
:100A500082808280EFF2CFF679717D36B767000031
:100A600083AA0757B767000083AB4757138AC1951E
:100A7000568B568CDE8C03594A00994763FF273505
:100A80000145413F930750056310F530114551373B
:100A90009307F00FAA846316F54615459D3F2A84F7
:100AA000631195461945B537631D8544054595374E
:100AB00085476308F5020944631885022383F1849E
:100AC000A3830184130600028145138581BDA3849D
:100AD0000184EFF0EFF43765000013058557EF2030
:100AE000402C1D45913741BF8D47631CF50237658A
:100AF0000000938581BD13054559EF2020232383F2
:100B00008184A3830184130600048145138581B980
:100B100023840184EFF0CFF0376500001305455BB7
:100B20007DBF9147631FF50437650000238301846F
:100B3000938581BD1305855DA3830184EF20001F8C
:100B400037650000938581B91305855EEF20001E8F
:100B5000938581B9138581BDEFF09F85130600024F
:100B60008145138581BDEFF0AFEB1306000481458D
:100B7000138581B9EFF0CFEAA38401842384018433
:100B80008DB795476315F5020D472383E184A38351
:100B90000184130600048145138581B5A382018475
:100BA000EFF00FE8376500001305855F0DBF99472B
:100BB000631CF50237650000938581B523830184AA
:100BC0001305C561A3830184EF204016138581B509
:100BD000EFF03F81130600048145138581B5EFF0E6
:100BE0002FE4A3820184F5BD9D476314F502152E01
:100BF000E685EF305003092E2D26EF408076AE8635
:100C0000B76500002A86938585620808EF204014A6
:100C100081A8A1476311F5022926DE85EF40801CDB
:100C2000930500002A84EF30306A635405001304F2
:100C300000002285C9B7A5476316F50203A7018402
:100C400083A64180938701846354D700050798C326
:100C50009043B7650000938585630808EF20400F37
:100C6000080825A8C147631EF50003A7418003A615
:100C70000184938741806354E6007D1798C39443B1
:100C8000C9BFC547631DF50023A0018461473765CF
:100C9000000023A2E18013058564E13999B5C947B5
:100CA0006314F502EF00007FE285EF30C077EF00BC
:100CB000807CEF00207EEF40C06AAE86B765000002
:100CC0002A869385856591B7CD476310F502EF00BD
:100CD000607CD685EF400011DA852A84EF30D05E43
:100CE000635305005A842285D9B793070002631D18
:100CF000F5049387418498239336170094A315E352
:100D0000376500001305C566AD310545EFF04FFCB2
:100D1000371501400546C14513050580EF10C01683
:100D2000C9B33765000013054568A1310145EFF0EF
:100D30002FFA371501400146C14513050580EF1014
:100D4000A014EF00501F71BB93071002E31BF5D8EE
:100D5000C92AEF400061AE86B76500002A869385F8
:100D600085620808EF10D07E0808213183A64180F3
:100D700003A60184B7650000938585630808EF101A
:100D8000307D0808FD3635B793070007631BF5165D
:100D900003CD618463070D1683C7718493847184C6
:100DA000639107160544930DF00F79199319040107
:100DB00093D909014E85B139631CB501138519001A
:100DC00089396317B50113852900A131630AB5017B
:100DD00005041374F40FE34B24FD45616FF00FC25B
:100DE0006DDC7D1485471374F40F6310FD06FD4719
:100DF00063EA87048147138D81BD0DA01389170015
:100E000013150901418132C6293132461387918475
:100E1000930716006A961CA308A2CA8713879184B9
:100E200093F6F70F1023E3EB86FC329D8547376579
:100E3000000023000D009CA0938581BD130545692A
:100E4000EF10D06E1385390071B98947631DFD0419
:100E50009307F003E3E887FE8147138D81B90DA066
:100E60001389170013150901418132C65D363246D8
:100E700013878184930716006A961CA308A2CA8769
:100E80001387818493F6F70F1023E3EB86FC329DE2
:100E900085473765000023000D009CA0938581B92C
:100EA0001305C56C71BF8D47E31EFDF89307F00372
:100EB000E3EA87F88147138D81B50DA013891700E8
:100EC00013150901418132C6A93632461387518470
:100ED000930716006A961CA308A2CA871387518439
:100EE00093F6F70F1023E3EB86FC329D85473765B9
:100EF000000023000D009CA0938581B51305C570EB
:100F000081B705451536D1BDEFF28FAE93050000D0
:100F10002A84EF3010336344050023A481806FF0EE
:100F20006FAF03A581808280EFF28FAC7971AA84C4
:100F30008545114502CA02CC02CE02D002D202D4AB
:100F400002D602C602C8EF10401293070020FC82AE
:100F5000371401408D473ECC4C08E147130504800F
:100F60003ECEEF00306693070040FC824C0891476C
:100F7000130504803ECEEF00F06485451165EF1047
:100F8000C00E37440140B7070C000C101305048055
:100F90003ED426D002D223160102EF10E0390546D6
:100FA0001305048093055052EF10604385451305E7
:100FB0000480EF106041930750237C8685475C874F
:100FC000680085473EC8EF00306D45616FF08FA423
:100FD000EFF26FA0B74401400144138981829384EA
:100FE00004809949B30789008C232685EF1080423D
:100FF000930500082685EF10E0427DD90504E31330
:1010000034FF6FF08FA018219307A00A6319F70629
:1010100001478147BD463306E50010220507B29718
:1010200093F7F70FE319D7FE7835631AF7041831F1
:1010300034212207938781BF558F9AA338315421D9
:101040002207558FBAA3583174212207558FDAA38E
:10105000783114252207558FFAA318353425220735
:10106000558F9AA7383554252207558FBAA758357A
:1010700074252207558FDAA705472388E1848280EB
:10108000EFF20F9783A5C18403A54188EF309055F7
:10109000930500002A84EF303023635405001304C5
:1010A000000083A581802285EF30D02AB767000039
:1010B00083A5C744EF30C06D6FF0CF95EFF24F932B
:1010C000938401859C203971638B070C138481BF45
:1010D0001220B7650000938585740A85EF1050478C
:1010E0000A85EFF01F895220B7650000938585754A
:1010F0000A85EF10F0450A85EFF0BF87322093078D
:101100004006B7650000B376F6029385C5760A857A
:101110003356F602EF10D0430A85EFF09F85122474
:10112000896793870771B376F602B76500009385E8
:1011300045780A853356F602EF1090410A85EFF0A4
:101140005F833224A947B7650000B376F602938522
:1011500085790A853356F602EF10903F0A85EFF045
:101160005F815224B76500009385857A0A85EF1068
:10117000303E0A85EFF0EFFF2137EF40801EAE864C
:10118000B76500002A869385857B0A85EF10503C61
:101190000A85EFF00FFEEFF0CFA723800400216156
:1011A0006FF04F8783C7018591C7EFF26F8439379E
:1011B0006FF04F868280411122C63744014093056B
:1011C00050521305048026C4EF1060261DCD130570
:1011D0000480EF10A024938411859C201375F50FD3
:1011E00095EB9307A00A631AF5001307A0FA23846E
:1011F000E1C085472389F1849CA0374501409305D0
:10120000505213050580EF1040263244A24441019C
:1012100073002030138421851420BD4763E1D70279
:1012200093871600138781C0369793F7F70F08A3AB
:101230001CA04147E393E7FC138581C0E933238079
:1012400004002300040055BFEFE29FFA2A890565D8
:101250007971AE8413054580854502D202D402D649
:1012600002C602C8231A010002CC02CE23100102DA
:1012700002C202C4EF00705F3714014093070010F0
:101280002312F1024C109147130504803ED6EF0063
:1012900070331305048093050010EF00B03E37341F
:1012A00001402C08130504C0231E2101E484231FE0
:1012B0000100231D010023000102EF0070666C0095
:1012C0008544130504C026C802C6231A0100EF0096
:1012D000907D9307B02248007C8226C4230301003E
:1012E000EF00903B0546130504C09945EF00B0732D
:1012F000130504C093050005EF001074130504C026
:101300009145EF007074130504C093050008EF00C9
:1013100010758545130504C0EF00706F45616FE0DF
:101320007FEF011122CE373401408945130504C0F7
:1013300026CC4ACA4EC852C656C4EF00B07D6308D8
:10134000050E130504C0EF00B07C03A4818603A939
:1013500081832A8A9384818663608910330489405B
:1013600003A7418693894186B307EA406376EA0082
:10137000C167FD17998FD29723A0F1889387818841
:101380008843050588C3938781C1982701E7D8431F
:101390000507D8C3EF301070B777000083A54781E9
:1013A000938A4188EF30C03E23A0AA002DCC23862B
:1013B00001882285EF30106EB777000083A5878102
:1013C000EF30003DB7770000AA8503A5C781EF3055
:1013D000203CB777000083A50782EF30A07723AACF
:1013E000A184EF301078AE86B77500002A86938509
:1013F0004582138501C3EF10B015138501C3EFF0CB
:101400004FD703A50A00EF30D075AE86B775000040
:101410002A8693858583138501C3EF107013138586
:1014200001C3EFF00FD523A0490123A024013734D5
:1014300001409145130504C0EF00D06D130504C0B1
:101440009945EF00B06E7244E2445249C249324AB3
:10145000A24A0561730020309307F9FF3384874067
:1014600001B7938781C188A711E503A7818323A2D0
:10147000070098C38280EFE2BFD7B767000083A55B
:1014800007572A84EF30E05B6344050023A6818080
:101490006FE05FD803A5C1808280EFE2DFD393873E
:1014A000018683A4818398439306703E3971338704
:1014B000E44063FAE60C84C303A5418583A5C1809B
:1014C000138A4185EF30E057138481C16350A00C2B
:1014D00085471CA423AE018493878185982315C773
:1014E00037150140238007000146C14513050580DB
:1014F00023860186EF0050190145EFE07FFD376537
:10150000000013054568EFF0CFC6B76700008324DD
:101510000A0083A5877C2685EF30A052138441877B
:10152000635CA01EB767000083A5C77C2685EF30EB
:10153000A0596353051E142083A781831387018755
:10154000639E06161CC385471CA0B767000083A5D1
:1015500007572685EF30E04E1384C187635AA01CDD
:10156000B767000083A5077D2685EF30E0556351FE
:10157000051C142083A78183138781876391061A32
:101580001CC385471CA021616FE03FC81C249DC37C
:101590001387C1851C4399E304C33DBF1D67B3870F
:1015A000F44013070753E379F7F22304040004C05F
:1015B000232204001C409D8CBD679387F7A5E3F6AA
:1015C00097F44840938981858D4783CA090063F069
:1015D000A70A23860186EF30F04BB777000083A57A
:1015E0004781EF30E01A4C48EF20F0631C4848C8B0
:1015F000BE9404C863970A0637150140854705461F
:10160000C145130505802380F900EF00F00793879B
:10161000018103A681839443372709001307077CC0
:10162000B306D6406376D700054590C3EFE05FEA86
:10163000B76500009385457D0A85EF3070690A859E
:10164000EFF02FB34848EF30D051AE86B7650000B9
:101650002A869385C57E0A85EF10806F0A85EFF094
:101660004FB183A78183232204001CC079BDE38A84
:101670000AFE1387C1861C238546850793F7F70F5B
:101680001CA3E3F0F6FE371501400146C1451305E2
:1016900005802300070023800900EF00E07E01455C
:1016A000EFE01FE33765000013054568EFF06FAC0E
:1016B00093070000232804005CC865B71843998F7E
:1016C0001D671307F752E372F7E893878185982324
:1016D000E31B07EA3715014005470546C1451305D9
:1016E000058098A3EF00407A9387018103A6818348
:1016F0009443372709001307077CB306D640637667
:10170000D700054590C3EFE0BFDC37650000130547
:10171000C57FEFF00FA685BD230004003DB518433B
:10172000998F37C70D001307F7B9E37EF7E471BF50
:101730002300040089BD938781C113070000D8CB23
:1017400003A7818323A2070023A8070098C38280F0
:10175000EFE21FAA79712A848545414502CA02CC6D
:1017600002CE02D002D202D402D602C602C8EF00D4
:10177000D00F854537050800EF0010119307004092
:10178000FC828D473ECC4C08E147371501403ECEE8
:10179000152D856793870780FC824C089147371584
:1017A00001403ECE052522D037540040B7070C003B
:1017B0000C10130504C03ED402D223160102EF0020
:1017C000B0370546130504C093055052EF00304171
:1017D0008545130504C0EF00303F930740247C8605
:1017E00089475C87680085473EC87D2545616FE075
:1017F0007FA2EFE27F9DB775000041111D469385E2
:10180000C5842A84EF30F04E69E1930700003EC2A0
:101810003EC4B777000083A78784AA841D043EC610
:1018200093094100930B0101254BA94A130CE002D7
:10183000930CC002014929A03309590305043A99C0
:1018400083070400138707FD9376F70FE376DBFE2B
:101850006397870905040145054A830704009387B8
:1018600007FD13F7F70F6375EB06EF3050162A8D5F
:101870005285EF30D015AA856A85EF2070712A8ACB
:101880004A85EF30D014AA855285EF20D0398307DE
:10189000040023A0A90063879705254729468307ED
:1018A0000400938707FD93F6F70F6372D70412477E
:1018B00023ACE188224723A8E188324723AAE180AC
:1018C00023AA91880547A386E18841016FE05F93D1
:1018D0003305550305043E95330A5A03BDBF014540
:1018E000054A61B791090504E3963BF57DB7B384DA
:1018F000C4020504BE9465B7411122C637540040A6
:1019000093055052130504C0EF0070322DC113052A
:1019100004C0EF00B0309375F50F930700041384F3
:10192000C1896394F500230004001C201307E0071D
:101930006365F702138717009376F70F138741C982
:10194000BA9788A314A0A947639BF500369713851F
:1019500041C923000700EFF0DFE9230004003755F9
:10196000004093055052130505C0EF00103032447B
:1019700041017300203001A0B707EFBE37E700E058
:10198000938707083CC701A0EFE2FF84411185451A
:101990001305000402C202C402C6C12D372501404E
:1019A0004144930740200D494C00130505807C827B
:1019B00022C64AC4012985454145452D89474C0029
:1019C000371501407C8222C64AC4ED2E854511455B
:1019D000692DB71401408547930980044C00138595
:1019E00004807C824EC6F92E4C00138504806082F0
:1019F00022C64AC4C12E13850480C1456121856772
:101A00004C00371501407C824EC66D2E41016FE0BF
:101A1000CFFFEFE24FFC39710945A5297164C52A52
:101A2000EF00F02513050420EF00302B930780080A
:101A300073A00780EFF05FF5EFE09FE6EFE0DF884F
:101A400013050420EFF0DFD0930540061305003C9A
:101A5000EFE05FD7EFE01FF4B16541659385F5B71F
:101A60007D15EFF06FFE096513050558EFF0CFCB3C
:101A7000EFF07FCC0145EFF0DF9E371501400146C6
:101A8000C145130505800921B767000083AA4745B2
:101A9000056413048438EFE0FFFBEFE0FFB6138723
:101AA000018A83A681831C431306703EB387F640E8
:101AB0006377F60014C3EFE01FC6EFF01F9EEFF050
:101AC0006FEE83C7D18885CF03A58189D685A3868C
:101AD0000188EF302008EF3060696373A40001458E
:101AE0002946B366C502B775000093854585334620
:101AF000C5020A85EF10C0250A85EFE09FE7B7070A
:101B0000002003C7872019C3238407200545EF0061
:101B1000701951B7B71702409843B706FFF041114B
:101B20001367170098C3D84337060200758FD8C3D0
:101B30009843B706F7FEFD16758F98C39843B7060E
:101B4000FCFFFD16758F98C3D843B70601FFFD163D
:101B5000758FD8C39843B70600ECFD16758F98C3F0
:101B60003707FF0098C723A6070202C402C698439E
:101B7000C166558F98C3B716024005679C42F18F26
:101B80003EC6A24785073EC4B24781E7A247E39716
:101B9000E7FEB71702409C431397E7006357070619
:101BA00085473EC632478547631FF704B717024093
:101BB000D843B706C1FFFD16D8C3D843D8C3D8430E
:101BC00013670740D8C3D843758FD8C3D843B70627
:101BD0002900558FD8C39843B7060001558F98C385
:101BE000984393166700E3DD06FED843B71602401C
:101BF000719BD8C3D84313672700D8C32147DC4261
:101C0000B18BE39EE7FE4101828002C661BFB71639
:101C10000240D8421146318B938781816305C7000A
:101C200021466308C70237177A001307072098C3B5
:101C300037170240584311839376F7003707002087
:101C4000130787013697142398433357D70098C357
:101C50008280D842D442416649833D8BF18E13067F
:101C6000270015CF3D47630FE6024147630FE602A9
:101C7000454781456313E6004146A1E237470240EC
:101C800003270780418B0DC737177A0013070720FA
:101C90003306C70290C3C9DD9843058349BF814518
:101CA0004946E1BF85453546C9BF81453D46F1B747
:101CB00037173D0013070790E1BF3715024058550D
:101CC0009316F700585563DF060411833D8B930686
:101CD000170037177A00130707203357D70298C326
:101CE0005455A182BD8A8DE295463307D7020583FC
:101CF00098C337170240585794433D8B050733D795
:101D0000E60298C3984369B705456394A600E54683
:101D1000E9BF3D456396A600D1463387E602C9BFB9
:101D20008906E5BF3D8B9306170037177A00130726
:101D300007203357D702F1B701A097F1FF1F938116
:101D4000E1CC176100201301E12B175500001305AA
:101D5000E5EB97E5FF1F9385E52A1386018363FA78
:101D6000C5008322050023A0550011059105E3EA73
:101D7000C5FE13850183938581D16377B500232048
:101D800005001105E36DB5FEFD42739002BCAD4246
:101D900073904280B7620000938282087390023091
:101DA00097E2FFFF9382422693E232007390523013
:101DB000EFF05FD6970200009382E2C57390123471
:101DC000730020309C4513F7070113F8F70001C793
:101DD000D8413368E8008E2113F7F50F39C3184155
:101DE0008146854E3D4F930F800293028004214E21
:101DF0003396DE00B3F8C5006311160393982600EE
:101E000033131F011343F3FF3377E300B3181801B3
:101E100033E7E800639FF70550C98506E39AC6FDDE
:101E200018C11307F00F6375B70454412146854E5E
:101E30003D4F930F800293028004414EB398CE0031
:101E400033F715016392E8021317260001173313C5
:101E5000EF001343F3FFB376D3003317E800D98EB6
:101E6000639DF701232A15010506E319C6FD54C138
:101E70008280E39457FA10C94DB7E39757FE2328A1
:101E80001501DDB74CC9828019C20CC982804CC9CA
:101E9000828023A2A18A828003A7418A89471021D8
:101EA0006311F70214318D4763EDD7003C219A0688
:101EB00037E700E09607D58F93F7F70F32972300A7
:101EC000F74054410547935756003317C70089CA56
:101ED000938707048A07B7E600E0B69798C3828025
:101EE00093870706B7E600E08A07B69798C30F10F6
:101EF00000008280371702405C439146B18B6385B6
:101F0000D700A1466382D706B7177A0093870720C8
:101F10001CC1371602405C423707002013078702B6
:101F20009183BD8BBA9794231C41B3D7D7005CC172
:101F30005442A1829D8ABA969422B3D6D70014C582
:101F40005442AD829D8A36971823B3D7E7005CC50B
:101F500058423983937637001387C1813697182307
:101F6000B3D7E7021CC982805C435843C166C9836A
:101F7000758FB7F6FF1F83A6C670BD8B89071396B2
:101F8000160163480600C54601466392D702C94759
:101F900039A88946638FD702BD46638ED702C146F2
:101FA000638ED702C54601466393D700C1471DEF34
:101FB0003747024003270780418B05C737177A0050
:101FC00013070720B307F7021CC121D61C418583E4
:101FD00081B701466DBF0546B547D1BF0146BD4734
:101FE000F9B737173D0013070790E9BFB71502404F
:101FF000D8559316F700D85563DF060411833D8B3F
:102000009306170037177A00130707203357D702B4
:1020100018C1D455A182BD8A8DE295463307D702F7
:10202000058318C137170240585714413D8B0507E7
:1020300033D7E60218C1184171B785456394B600DD
:10204000E546E9BFBD456396B600D1463387E60253
:10205000C9BF8906E5BF3D8B9306170037177A0085
:10206000130707203357D702F1B799C53717024036
:102070001C4F5D8D08CF8280B7170240984F1345E3
:10208000F5FF798D88CF828099C5371702405C4F64
:102090005D8D48CF8280B7170240D84F1345F5FFBA
:1020A000798DC8CF82801E319206558EC207C183BA
:1020B000F99BC207C1831EB11A2D1E31420741830D
:1020C000C2071377C7F0C183518F4207F59B418345
:1020D000CD8F93E717001AAD1EB182801E31B20674
:1020E0002206C207C183BD9BC207C1831EB103582C
:1020F00085011A3185679387F7CF42074183B3F78C
:102100000701D18E92051377F7FDD58FD98DC207C0
:10211000C205C183C18193E505011EAD0EB1828068
:1021200037F7FF1F032747701E21914611833D8B10
:10213000C2077117C18363E6E60237370140930691
:1021400007C0630ED50013070740630AE500375741
:102150000140930607C06304D500631AE5000967D0
:10216000D98F37370140130707C06302E5043707EB
:102170000040630EE50213070740630AE5023717C4
:102180000040930607806304D502130707C063006D
:10219000E5023737014013070740630AE500375768
:1021A0000140930607C06304D5006318E50093F768
:1021B000F7F8BA21C207C183D98F37170040630CE3
:1021C000E500130707406308E50093F7F7CFFA210E
:1021D000C207C183D98F1EA1DE215EB59E211EB527
:1021E000B7370140138707C0630EE50093870740A8
:1021F000630AF500B7570140138707C06304E50081
:102200006314F5009C251EB985475EA982801E21B6
:1022100089C593E717001EA18280C207C183F99B7D
:10222000C207C183CDBF5E2501C6DD8D4EA582806C
:1022300093C5F5FFFD8DDDBF1E25C207C18393F752
:10224000F7F8DD8D0EA582801E25C207C183E19BB4
:10225000C207C1831EA51E25DD8D0EA582801E2509
:10226000C207C18393F7F7F7C207C1831EA51E25D6
:10227000DD8D0EA582801E2DC207C183CD9BC207B6
:10228000C1831EAD1E2DDD8D0EAD82801A2DFD7712
:102290009387F73FF98F1EAD1E2DA205DD8DC20578
:1022A000C1810EAD8280EFD21FF32E84AE21522069
:1022B000854713B91500AA84060985496313F600FA
:1022C00089491E20162426859DE3EFF0DFDD6E2070
:1022D0002685EFF05FFA1624CA8526854E86EFF034
:1022E000FFDF6E202685EFF07FFA6FD01FF2EFF050
:1022F000FFDE6E202685EFF07FF91624CA8526853D
:102300004E86EFF05FDA6E202685EFF0DFF6F1BF44
:102310004A3982801E294A25ED8F4205418189C7AD
:102320006D8D3335A00082800145828093C5F5FF15
:10233000C205C1810EA98280EFD29FEB1629F577E5
:10234000FD17F58FF621DA257971D58F1EA956254F
:10235000FD779387379FF58FD6212A842EC6D58F98
:102360009625D58FB625D58F5EA55E29C207C18378
:1023700093F7F7CFD98F5EA96808EFF0BFB7B747DB
:10238000014093870780B245631EF402A257654758
:10239000B387E7029841930640060A07B3D7E702DE
:1023A00033D7D702B3F7D7021207920793872703D1
:1023B000B3D7D702BD8BD98FC207C1831EA4456195
:1023C0006FD05FE59257E1B791C55E250967D98F58
:1023D0005EA582805A25F977FD17F98FD5BF13F7CF
:1023E000F50F85471583B395B7006319F700930779
:1023F000C500984301CED98D8CC38280894693074E
:102400004501E318D7FE93070501E5B793C5F5FF2E
:10241000F98DDDB793F5F51F4EA182804A21137522
:10242000F51F82800A216D8D3335A000828013F75D
:10243000F50F85461583B397B6006311D7025A2569
:10244000F98F1A2101454207418381CB0545A181BE
:10245000B315B5006D8F3335E00082808946631473
:10246000D7001A29F1BF5A29E1BFA1818547B39747
:10247000B70093C7F7FFC207C1831EA1828083A75D
:10248000818137177A0013070720B3D7E70293F744
:10249000F70F2385F18A1307803EB387E702239461
:1024A000F18A8280B7F700E0D8438146799BD8C390
:1024B00003D7818A3306A70290CBD4CB9843136706
:1024C000070198C398431367170298C3D843058B35
:1024D00075DF9843799B98C38280EFD27FD12A849D
:1024E0001165011185451105EFF03FB893070020F4
:1024F0007C82371501408D473EC44C00E1471305EF
:1025000005803EC6EFF01F8C22C837440140B70754
:1025100008000C08130504803ECC02CA231E0100EB
:10252000EFF09FE1854513050480EFF0FFE90561B9
:102530006FD05FCEEFD23FCAB7440140AE89328937
:10254000014493840480634524014A856FD0FFCB06
:10255000930500042685EFF0FFEC7DD9B387890051
:102560008385070026850504C205C181EFF09FEA37
:10257000D9BF138701821C43938681D13E95636B3B
:10258000D500B78600209386068063E5A60008C3C1
:102590003E858280FD57EDBF011106CE2EC60DCDC2
:1025A0001841AA8705C358417D5511CB8546631B49
:1025B000D70098472300070023A207000545F240F3
:1025C000056182809847B24614A39847050798C7CB
:1025D000D8437D17D8C3DDB705466C00EFF09FF5F3
:1025E000F1BF797122D426D24ECE52CC56CA06D62D
:1025F0004AD05AC82A8AAE8A32848144930900029A
:1026000063440602B3879A00838707009DE363D67D
:10261000840263D2E402198C93F726009309000226
:1026200081C719E393090003858A014985EA228954
:1026300031A88504C1BF058CC5B70144F1BFCE8563
:1026400052853AC6EFF05FF532477D19E34920FF26
:1026500022896353040001493304244163CBE4021B
:10266000CA84B3872441D69783850700A1E12289D4
:102670006343200563530400014433059400B250C2
:10268000225492540259F249624AD24A424B45615D
:102690008280B3049740268B9305000352857D1BEF
:1026A000EFF09FEFE31A0BFE26995DBF5285EFF026
:1026B000BFEE85047DB7CE855285EFF0FFED7D1925
:1026C00045BF5D71A6C252DC86C6A2C4CAC04EDE3A
:1026D00056DABA843E8A9DE1930700030147D28609
:1026E00026862C08FC84EFF0DFEFB64026449644A3
:1026F0000649F259625AD25A616182802A89368427
:10270000C68A91CAA94701446317F60063D505003C
:10271000B305B0400544A30701029307F102A546A3
:10272000130568FC33F7C50263D3E6002A97130745
:102730000703A38FE7FE9389F7FF33D7C50263FB37
:10274000C50409CCB9C813772A0021CB9305D00260
:102750004A8542C6EFF05FE43248FD1493774A00A1
:102760008DC393071006930500034A85631FF80283
:10277000EFF09FE2930580074A85EFF0FFE109043F
:10278000F9145687D2862686CE854A85EFF07FE5F6
:102790002295A1BFBA85CE8771B71307D002A38F48
:1027A000E9FE01449389E7FF55BFEFF0FFDE930593
:1027B0008005D9B71D71CAC8CEC6D6C2DAC03A895B
:1027C00086CEA2CCA6CAD2C45EDE62DC66DA6AD845
:1027D0006ED633E7C500BE89AA8A428B83470106BD
:1027E00031E38DCF8D679387D7027C842305010069
:1027F0000147DA864E862C005685EFF09FDEF640C4
:102800006644D6444649B649264A964A064BF25B88
:10281000625CD25C425DB25D2561828093070003F9
:102820007C84F9B7368AAE84328463000902A947F2
:102830000149639CF600635A0600B304B040B33705
:1028400090003304C0401D8C0549A30F0100130DF7
:10285000F101935DFA41A54C138C68FC5286EE861B
:102860002685A285EF00B01163D3AC0062951305F5
:102870000503A30FADFE5286EE862685A285930B37
:10288000FDFFAD236366B401639A8D0263F84403D0
:10289000630D09006388090293772B0085C79305B0
:1028A000D0025685EFF05FCFFD190147DA864E86DC
:1028B000DE855685EFF0FFD24A9591B7AA842E8423
:1028C0005E8D69BF9307D002A38FFBFE0149930B76
:1028D000EDFFE1BF5D71A6C2CAC0AA842E892E8514
:1028E000B28586C63ACE42CCA2C44EDE52DCB28954
:1028F000368A56DA5AD8BE8A5ED662D466D2468CFA
:102900006AD0EF10300B2A8BAE8B01468146CE8504
:102910004A85EF00703F724762487D81BA872AC0BE
:102920000547E288D286DA855E862685EFF09FE845
:102930002A8D9305E0022685EFF01FC6050D81471D
:10294000854C0144294763CE57075A85DE85EF1031
:1029500030122A86AE864A85CE85EF10C0112A89AC
:10296000AE896685A285EF10B0102A86AE864A85AC
:10297000CE85EF00D044EF10F00313D6F541318D32
:10298000B347B600B305C5403335B5003386C740FD
:1029900002C0E288D687D286098E09482685054777
:1029A000EFF05FE1B64026446A9596440649F25935
:1029B000625AD25A425BB25B225C925C025D6161F8
:1029C0008280B3068702850733349703B30C9703DD
:1029D000369495BF5D715AD8377B0000A2C4A6C259
:1029E000CAC04EDE52DC56DA5ED662D486C666D2E5
:1029F000AA892E893284014A8144930B5002930A9A
:102A0000B002294C130B8B86830509008DE5638684
:102A1000090081454E85EFF03FB8B6402644268533
:102A200006499644F259625AD25A425BB25B225C22
:102A3000925C61618280638875014E85EFF0DFB53D
:102A400085040509D1B783071900930C1900639A0F
:102A50007701930550024E85EFF01FB48504668917
:102A6000CDB7D5D76387570563C8FA00130730027F
:102A70006384E704814705A01307D002638AE70057
:102A800013070003E398E7FE930C2900894721A070
:102A9000930C2900854703870C006303570563C126
:102AA000EA0293063002630BD70266890145A54509
:102AB00035A8930C29007DBF930C29009147E1BFF5
:102AC0009306D0026309D70093060003E31FD7FCE7
:102AD00093E7270031A0850C8547C1BF93E74700E6
:102AE000850CE1B733058503050936950307090011
:102AF000930607FD13F6F60FE3F6C5FE1306E00294
:102B00009946631EC700050981462546030709004B
:102B1000130707FD9375F70F6375B602368A03072F
:102B200009001306A0066309C70A6341E6021306FB
:102B3000C0046303C70A130680066308C70801467A
:102B40001DA8B38686030509BA96C9B713064007C0
:102B50006304C7081306A0076300C7089305C006EF
:102B60000146631AB700830519000D466394E5001A
:102B70000509114605090307090093050006130816
:102B8000100663C4E500130810049305700663C2C1
:102B9000E506930550066359B7169305700463CF95
:102BA000E502130650046351C71693063004E31A76
:102BB000D7E81840930C4400A30E0100230EE10057
:102BC000BE8601472A866C0871A08305190001465C
:102BD000E393E5FA090945B7050995B79306300669
:102BE000E309D7FC63CEE606930680056303D702AC
:102BF00089BD930630076306D70463CDE6029306CA
:102C0000F006630BD70C9306000793E74700E31A1F
:102C1000D7E21147631BE60A1D04137784FF0C43B8
:102C2000504313048700C28802C03E880147AA8728
:102C3000C146B9A0930650076303D70693068007E1
:102C400075B71840930C4400DA8511C3BA855287D2
:102C5000BE862A864E85EFF0DF98AA946684D5B3A7
:102C600011476314E6021D04137784FF0C4350439D
:102C700013048700C28802C03E880547AA87A94678
:102C80004E85EFF03FB3AA946DBB0C40D28811047F
:102C90002A87854629464E85EFF0BFA2EDB711473A
:102CA000631FE6001D04137784FF0C435043130495
:102CB0008700C28802C03E880147AA87C9B70C4076
:102CC000D28811042A878146F1B70C40D2881104BA
:102CD0002A8781464146C1B711476310E6021D04A9
:102CE000137784FF0C43504313048700C28802C04B
:102CF0003E880147AA87A14661B70C40D2881104DB
:102D00002A878146214641BF1D04137684FF1304A0
:102D100086000C4250423307D540C2887D173E885A
:102D20004E85B687A946EFF0FFBAB1BF39712ED2F2
:102D300032D4AA855010014506CE36D63AD83EDAAE
:102D400042DC46DE32C6EFF0FFC8F24021618280ED
:102D5000397132D43EDA2AC63010FD57480006CE0B
:102D600036D63AD842DC46DE02C23EC432C0EFF06C
:102D70007FC6F24021618280397132833EDA2EC4EF
:102D80002AC67010854748009A8506CE36D63AD8AE
:102D900042DC46DE3EC232C0EFF0DFC3F2402161CA
:102DA0008280011122CC26CA06CE1C21AA840144AD
:102DB000DC878307F100050499EFA9479305F1002B
:102DC00005460145DC87EFF0EFF62285F2406244CC
:102DD000D2440561828005469305F1000145EFF07C
:102DE0006FF5B38784009C23DC87E1B7B687B28890
:102DF0002A832E88639B061463F8C50A4167636BB8
:102E0000E61AB70700016360F63493568601E1477E
:102E100017470000130707B636971823BA9713070A
:102E200000021D8F19CB3398E500B357F500B31896
:102E3000E60033E807013313E50013D608013355E4
:102E4000C80293960801C182935703013377C802E1
:102E5000B385A60242073368F700637AB800469844
:102E60009307F5FF636418016365B8303E85330846
:102E7000B8403357C8024203135303013378C802E2
:102E8000B386E602420833686800637BD800469840
:102E90009307F7FF6365180179176363D8003E87CE
:102EA0004205598D8145828001E60547B358C70226
:102EB000416763E8E80EB707000163EAF82893D694
:102EC0008801E147174700001307C7AA3697142364
:102ED000BE9693070002958FFDE7939E0801338706
:102EE000154113DF080193DE0E0185459357030159
:102EF0003355E7033377E703B306D5034207D98F8A
:102F000063FAD700C6971307F5FF63E4170163E57B
:102F1000D7263A85958F33D7E7034203135303012E
:102F2000B3F7E703B30ED703C207B3E7670063FB4A
:102F3000D701C6979306F7FF63E51701791763E397
:102F4000D70136874205598D828063E1D504C16778
:102F500063E1F604B707000163E3F61E13D78601A9
:102F60006148974700009387E7A0BA979823130E0C
:102F700000024297330EEE40631A0E0C63EDB61C4E
:102F80003335C500134515008145828081450145D3
:102F900082809307F00F63F3D71C13D78600214874
:102FA000C9B71307F00FC686E37E17F193D68800E2
:102FB000A14709BF1307F00FB286E37BC7E493561E
:102FC0008600A147B1B5B398F80033D6D50013DF1A
:102FD0000801335EE6033397F500B356D500558FED
:102FE000939E080193DE0E013313F50093550701FC
:102FF000B376E603B387CE03C206CD8E63FBF6003D
:10300000C6961306FEFF63E4161763F2F616791EE2
:10301000C6969D8E33D6E60393170701C183B3F698
:10302000E6033385CE02139706015D8F637BA7000D
:1030300046979307F6FF636817136376A71279160E
:10304000469793150E01098FD18D4DB5B357E60004
:10305000B396C601DD8E33D3E50013DF0601B35707
:10306000E303939E060193DE0E013398C5013357A7
:10307000E50033680701935808013316C60133731E
:10308000E303B385FE024203B368130163FBB80098
:10309000B6981387F7FF63EAD80C63F8B80CF917F2
:1030A000B698B388B84033D7E803420813580801EC
:1030B000B3F8E8033383EE02C208B3E5080163FB0B
:1030C0006500B6951308F7FF63EDD50863FB650847
:1030D0007917B695C207416FD98F1307FFFFB3F673
:1030E000E70093D80701718F4182B38EE602B38562
:1030F0006540B386C60213D80E013387E802BA963C
:10310000C2963386C80263F3E6007A9693D8060126
:10311000469663E2C5026385C5003E85814582808F
:1031200041677D17F98EC206B3FEEE003315C50167
:10313000F696E374D5FE1385F7FF8145828013D799
:103140000601414839BD93560601C147D1B193D616
:103150000801C14785BB8145054582803687014806
:1031600009B5428785BF3E86E9BDBA871DBF328E4D
:103170004DB579154698E5B97915C69761BBB687FF
:1031800032882A832E872E8E6391061463F0C50A37
:1031900041676376E61A1307F00FB2866375C700BE
:1031A00093568600A147173700001307A77C369770
:1031B000182393080002BA97B388F840638C08007C
:1031C000B3951501B357F5003318160133EEB70068
:1031D0003313150113560801B357CE021315080116
:1031E000418193560301337ECE02B307F502420EAE
:1031F0003367DE006378F700429763650701637306
:10320000F70042971D8FB356C70293170301C1837E
:103210003377C7023305D5024207D98F63EBA7087E
:103220003385A740335515018145828001E6054766
:103230003358C7024167636BE80EB7070001636448
:10324000F82A93568801E147173700001307877261
:103250003697182393080002BA97B388F840639A08
:10326000081E131E0801B385054113560801135E9D
:103270000E0113570301B3D6C502B3F5C502B386D9
:10328000C603C2054D8F6377D70042976364070179
:10329000636AD726158F3355C702420313530301C0
:1032A0003377C7023305C5034207B367670063F886
:1032B000A700C29763E5070163F3A700C2973385B0
:1032C000A74033551501814582802A88E3EFD5F464
:1032D000C16763E5F604B707000163E2F62013D384
:1032E0008601E148973700009387C7689A9703CE15
:1032F000070013030002469E3303C341631903040E
:1033000063E4B6006369C5003308C540958D333763
:1033100005013387E5404285BA8582809307F00F27
:1033200063FBD71C13D38600A1486DBF1307F00FB2
:10333000C286E37B07F193568800A14731B7B707F0
:1033400000016366F61A93568601E147A9BDB3579B
:10335000C601B3966600DD8EB3D8C50113D706014A
:10336000B3DEE802139F0601B357C501135F0F01D7
:10337000B3956500DD8D13D805013316660033154E
:103380006500B3F8E802B307DF03C20833E80801B9
:10339000637BF80036989388FEFF6363D8166371E9
:1033A000F816F91E36983308F840B357E802C205FC
:1033B000C1813378E802330FFF02131708014D8FE4
:1033C000637BE70136979385F7FF6369D7126377CD
:1033D000E713F9173697C20EC162B3EEFE001388E9
:1033E000F2FFB3F80E019355060193DE0E01337818
:1033F0000601B38F08033307E74133880E0393D7E1
:103400000F01B388B802C298C697B38EBE0263F3A9
:103410000701969E41687D1893D50701B3F7070110
:10342000C207B3FF0F01F695FE976362B70A630EFA
:10343000B708B307F5403335F500B305B740898DBC
:10344000339EC50133D567003365AE00B3D5650043
:1034500082803318180133D7F50013560801B3568C
:10346000C702131E0801B357F500135E0E01B39592
:103470001501DD8D93DE0501331315013377C70286
:10348000B307DE0293160701B3E6D60163F8F60030
:10349000C29663E5060163F3F600C2969D8E33D7AC
:1034A000C60293970501C183B3F6C6023307EE0245
:1034B00093950601DD8D63F8E500C29563E505018E
:1034C00063F3E500C295998D6DB3E374F5F6338629
:1034D000C740B3B7C700B6979D8DB28799BF13D3C6
:1034E0000601C14801B593560801C147B1BB9356C7
:1034F0000601C1474DB936838148EDB3AE87E1BDC2
:10350000C68E55B5429779B313D74501B70710005A
:10351000FD1713D846011377F77F9308F07F33FE2A
:10352000B700AA8EF58FFD81328F1378F87FFD8268
:10353000630E1703630D180129E3B368AE00631F20
:1035400008005D8E01EE0143638C080421A8B3E8F6
:10355000C7000943639608046DD305A0638408047B
:103560006385D50205438DCD7D531DA8B368AE009C
:10357000094363970802630AE802631408005D8E3A
:1035800075D2E391D5FEE34FE8FC63490701E3EB15
:10359000C7FD630FFE0001436374FE00F1D50543D0
:1035A0001A858280EDFE7D53E5BF5D8E79DACDBF51
:1035B000E36ADFFB0143E3F5EEFFF5F175B739711F
:1035C0004AD813D945014ED652D456D29399C50044
:1035D00006DE22DC26DA5AD05ECE1379F97F2A8AFB
:1035E00093D9C90093DAF501630D090E9307F07FB3
:1035F0006306F9181354D5018E09B36934013704F1
:10360000800033E4890093143500130919C08149FF
:10361000814B13D74601139AC6001377F77FB28503
:10362000135ACA0013DBF601630B07109307F07FF0
:103630006303F7049357D6010E0A33EA47011307D1
:1036400017C0B7078000B367FA00931536003A99A0
:10365000814833C76A01BD463A851308190063E8FB
:103660003617173600001306E6208A09B29983A69A
:103670000900B2968286B367CA001309F97F63997D
:10368000071293E9290081458948E1B7014793076B
:10369000F07F3704080081443204D20731807E076E
:1036A0005D8C598CA285F250625426854259D254C1
:1036B000B259225A925A025BF24B216182805A859A
:1036C0003E84AE84C68B8947638DFB0E8D47E38FA6
:1036D000FBFA85472A87639EFB3881470144814472
:1036E00065BF33E4A90061C036C632C4638C092AC1
:1036F0004E85EF10D0512246B246AA87130755FFD8
:103700007544938487FF198CB399990033548A00C8
:1037100033643401B3149A0013D746011309D0C09F
:10372000139AC6001377F77F3309F9408149814B1B
:10373000B285135ACA0013DBF601E31907EEB3672B
:10374000CA00B1C7630F0A22528532C4EF10304C51
:1037500022462A87930655FFF547930587FF958FE5
:10376000331ABA00B357F600B3E74701B315B600F2
:103770003309E9401309D9C08148E1BD33E4A90008
:1037800001ECA14981441309F07F894B59B593E9B4
:1037900019008145854875BD4E84AA84B149130935
:1037A000F07F8D4BBDB5914981440149854B95B55D
:1037B00093E93900D2878D4869BD89475685E397DB
:1037C000FBF02A879307F07F01448144F1B5C16E75
:1037D0001386FEFF93D6040113DE0501F18CF18DF3
:1037E000338695023383B6029358060133059E0251
:1037F0001A95AA98B382C60363F36800F692C16F64
:103800001383FFFF33F5670093D30701B3F7680015
:10381000C207337366003E933306950293D80801BE
:10382000B387A602135F0601B3849302BE94FA9491
:10383000B38E760263F3F400FE9E416A9307FAFFAB
:10384000935F0401B376F400B3F9F4007D8EC18078
:103850003384D502C209338FD401B299CE98B3070D
:10386000DE02935E0401B385BF02AE97BE9E330EA7
:10387000FE0363F3BE00529EC1679385F7FF33F6E4
:10388000BE006D8C4206229693DE0E01B305D50272
:10389000769E3385AF0213D40501B386D302AA9670
:1038A000A296B38FF30363F3A600BE9F41657D1517
:1038B000B3F7A600C2076D8DAA97B3855800B3B9B8
:1038C0003501FA97B2953384370133B6C500B30E8C
:1038D000C4013385CE0033343401B3B7E701C18F5F
:1038E00033BECE0113D406013336C5003E94336691
:1038F000CE009394950032947E94B3E46400260441
:1039000093567501B3349000DD8193179500CD8CEB
:10391000558CDD8C9317740063DB070093D714007C
:1039200085889316F401DD8CD58C05804289930738
:10393000F93F6359F00893F6740081CE93F6F400D2
:1039400011466388C60093864400B3B4960026945B
:10395000B6849316740063D80600B70700FFFD17FE
:103960007D8C930709409306E07F63CFF60E93D6D4
:1039700034009314D4012604D58C318093F7F77F5B
:1039800021BB328532C4EF10902893065501F147D0
:10399000130705022246E3D1D7DC6115B317A60051
:1039A0008145F9B3EF10B02613075501F145930790
:1039B00005022246B246E3D5E5D461153314AA00C8
:1039C000814499BB85469D8EB1E71309E941B397C0
:1039D0002401B3D4D40033192401B337F000B36405
:1039E0009900DD8C93F77400B356D40081CF93F720
:1039F000F40011466388C70093874400B3B497006E
:103A0000A696BE849397860063D807048547014431
:103A1000814459B113068003E341D6CC7D46E35679
:103A2000D6FA0556B307F640930500023356F40064
:103A30006387B6001309E943B3172401DD8CB3345F
:103A40009000D18C93F67400014499CA93F7F40066
:103A500011468146E392C7FA139496003180F60628
:103A60008D80D58C81470DB99307F07F0144814447
:103A700025B142896DBD370710007D1701113373E1
:103A8000B70093D84601758F935ED60122CC26CA23
:103A90000E0393D445019357D5010E0706CE4AC8AD
:103AA0004EC693F8F87F130EF07F33E7EE0093F4E1
:103AB000F47F13D4F50133E36700131F3500FD8253
:103AC000931E36006380C81993C61600B38514414F
:103AD0006305D4126351B018638B081AB7078000CE
:103AE0005D8F6381C4599307800363C4B734FD4776
:103AF00063C5B748930700028D8FB3D9BE00331852
:103B0000F700B39EFE00336838013357B700B3396E
:103B1000D001336838013303E340B3090F41B337B1
:103B20003F013306F3409317860063D30724370918
:103B300080007D1933792601630F092C4A85EF1027
:103B4000100D130785FF93070002998FB3D7F90073
:103B50003316E900D18FB399E9006344972A058FA2
:103B600013061700FD4663C5C63A13070002118FFE
:103B7000B3D6C9003398E9003397E700558F33383F
:103B80000001B369070133D6C700814493F7790078
:103B900081CF93F6F90091476388F6009386490038
:103BA00033B836014296B6899317860063D6071C50
:103BB000138714009307F07F05886306F720B70783
:103BC00080FFFD17F18F1398D70193D93900A6070D
:103BD00033683801B1831377F77F9396C700520794
:103BE000B1827E04D98EC18EF2406244D2444249F1
:103BF000B2494285B685056182806356B00A638A00
:103C00000812B70780005D8F6387C42D9307800378
:103C100063C7B718FD4763D2B73C138805FE930707
:103C20000002B3590701638AF50093070004B385C6
:103C3000B7403317B700B3EEEE003338D001336826
:103C4000380195A2B367D7019385148099E393C691
:103C50001600630AD404D1E19387140093F7E77F39
:103C60006399071EB367E3013368D70163920416B3
:103C70006382073C63160842131835009316D3017C
:103C80001358380033E806019357330019A2B3677D
:103C9000D7016385071A9387F5FF638B073A638C17
:103CA000C523BE8589B56399051C9386140093F7D7
:103CB000E67FC1EFB367E30163900436638D074489
:103CC000B367D701639407460E051318D3010D811E
:103CD0003368A800935733006DA8B3859840639765
:103CE0000420B367E301638D07309387F5FF638991
:103CF00007401305F07F6383A520BE8593078003EB
:103D000063C2B72AFD4763C8B73C930700028D8F93
:103D10003318F3003356BF00B317FF003368C800F1
:103D2000B339F0003353B3003368380133076740C9
:103D3000B5ACB367D701638307109387F5FF638F33
:103D4000071E6380C52FBE85D1B59307F07F638BB7
:103D5000F606FA9E33B6EE01B307E300B297139866
:103D6000F70193DE1E00B369D80113D61700B6849D
:103D700093F77900E39F07E09317D60113D8390032
:103D80003368F800A685935736001307F07F6380E9
:103D9000E506B207B18313F7F57F05883DBD3367AC
:103DA000D7013338E000B309E801B3B7E90133863E
:103DB000670093178600E3DD07FA85049307F07F19
:103DC000639CF41805881307F07F8147014831B5DB
:103DD000639107106301083C131836009317D7014D
:103DE000135838003368F800368493573700B367A8
:103DF000F800E9DB01441307F07FB707080001482A
:103E0000E9BB370680FF7D167D8E93F77900998C8C
:103E1000E39107D895B74E85EF10605F13078501D2
:103E2000FD47E3D2E7D2130685FFB397C900814966
:103E30002DB33368D70133380001C5B113183500ED
:103E40009317D301135838003368F80093573300A1
:103E50002DBFB309DF413309E34033363F01330956
:103E6000C9409317890063CA072033E82901E31585
:103E700008CC8147014431BFB38598406381041465
:103E8000B70680009307F07F3363D3006381F82087
:103E90009307800363CCB722FD4763C9B72C930710
:103EA00000028D8F3318F300B356BF00B317FF0025
:103EB0003368D800B339F0003353B30033683801A6
:103EC0001A97B309D801B3B7D9013386E700C6847E
:103ED000CDB5E31108F2131835009317D301135829
:103EE00038003368F8009357330011B73705800066
:103EF0009307F07F3363A300E392F8E00E061318F4
:103F0000D7010D823368C800935737003684C5B592
:103F100005179306000233D7E700630AD60093061D
:103F200000043386C6403396C700B3E9C90033386E
:103F30003001B369E800014681441DBDB309DF01CA
:103F4000B307E30033BFE9013386E7019317860027
:103F50008544E3DF07E08944B70780FFFD17F18F51
:103F600013D7190013F81900336807019399F70163
:103F7000B3E9090113D6170011B9138805FE930799
:103F80000002B3590701638AF50093070004B38563
:103F9000B7403317B700B3EEEE003338D0013368C3
:103FA0003801A5BE3363E30133386000B3890E41A5
:103FB000B3B73E013306F740C6843684ADB6B36767
:103FC000E301638707189387F5FF638C071C93064B
:103FD000F07F638ED50ABE8565BD930700028D8F85
:103FE000B3D9BE003318F700B39EFE003368380122
:103FF0003357B700B339D001336838013A9365B30A
:10400000131836009317D7011358380033E8070107
:1040100036849357370095BBBDCB3367D701E31B7D
:1040200007DC0E051318D3010D813368A8009357E0
:10403000330075BBE30F08E2131836009317D7015E
:10404000135838003368F80036849357370091B31B
:10405000B309DF41B307E340333F3F013386E74114
:104060008544D1B4131835009316D3011358380082
:1040700033E80601935733009DBBB389EE41330605
:10408000674033B93E0133092641368475B40E06C4
:104090001318D7010D823368C8009357370081BBCE
:1040A000B309DF41B307E34033363F013386C740EE
:1040B0009317860063D7070AB389EE41B3076740B9
:1040C000B3BE3E013386D7413684C9B43363E301BE
:1040D00033386000FDB3138805FE93070002B3591F
:1040E0000301638AF50093070004B385B7403313D7
:1040F000B300336F6F003338E001336838017DB5AA
:10410000B389EE41B3076740B3BE3E013386D74162
:104110003684854409BC131836009317D701135809
:1041200038003368F80093573700A5B1B309DF01B1
:10413000B307E30033BFE9013386E7019317860035
:10414000E3D807C2B70780FFFD177D8E85440DB108
:104150000E061318D7010D823368C8009357370035
:104160002DB133E8C900E30608D019B1138805FE64
:1041700093070002B3590301638AF5009307000413
:10418000B385B7403313B300336F6F003338E001AA
:10419000336838013DB301441307F07FB7070800C7
:1041A0002DBCB309DF01B307E300B3BED9013386E9
:1041B000D70169BB3707100093D745019306F7FF76
:1041C00093F7F77F1308E03FED8E13D6F5016353A5
:1041D000F8029305D04363D2F5028545918D3305EE
:1041E000B04013D6F541B7050080B337A000918DDC
:1041F0009D8D828001458145828013082043B3E56F
:10420000E6006354F8021387D7BA9387D7BC634597
:104210000704B315E500014565D23305A040B33767
:10422000A000B305B0409D8D8280930630439D8EE3
:104230007D47634CD7001387D7BE3397E5003355CE
:10424000D500598DB3D5D500C1BF130530411D8DA3
:1042500033D5A5008145C9B7FD46135715009D8E7E
:104260003357D700B395F500D98D3315F5006DB7E9
:10427000011106CE22CC26CA4AC84EC6B367B50085
:104280009DCFAE84AA8913D9F50163CE0504268497
:10429000ADC42685EF10A0179306E043898E9307DF
:1042A000304363CAD7089397C4002D464E8793F6D0
:1042B000F67FB1836359A600130655FFB9A80149DB
:1042C000814681470147B207F2406244D206B1837A
:1042D0007E09D58FB3E72701D2444249B2493A85D6
:1042E000BE85056182803305A040B336A000B304CB
:1042F000B040958CAA892684C9FC4E85EF10201108
:104300002A869306E04313050502898E9307A002CF
:1043100093F6F67F63C7A70C55061307B002098F03
:10432000B397C40033D7E9005D8F9317C700B183FB
:104330003397C90049BF9307604363DBD702214726
:10434000098F930507FE63C2050CB3D5B40001477E
:104350001306850193078503634C06083396C9004D
:104360008149B3E9C90033363001B3E9C5003A8465
:10437000A1474E8663C9A704B70780FFFD17937551
:1043800076003377F40085C59375F6001148638095
:1043900005039305460033B6C50032971316870010
:1043A000635106089306F0437D8F898E2E86135540
:1043B0003600931797001316D7013367A600B18311
:1043C00093F6F67F09B793078002930585FF898FDF
:1043D000B3D7F9003317B40033E4E7003396B900DC
:1043E00061BF5516B397C900B207B1830147E1BD5C
:1043F0007D4613D819001D8E3358C8003396F4003B
:104400003366C800B399F900A9BF7D46198E93970A
:104410001400B3D5E900B397C700DD8D33D7E400AE
:1044200005BF2E8669B74111370780007D1713D865
:10443000750126C2935475013373A70093F4F40FEA
:10444000B376B7004AC01378F80F1359F50106C6C2
:1044500022C4FD819A8726854A86131E3300939EC7
:104460003600B3880441630AB90E6350100D63042B
:1044700008149307F00F638BF414B7070004B3EE2E
:10448000FE00ED4763C1172993070002B387174168
:10449000B397FE00B3D81E01B337F000B3E7F800BE
:1044A000B307FE4013975700635E071837040004F4
:1044B0007D147D8C2285EF0090756D15B317A400D7
:1044C0006348951A058D1304150013070002018F28
:1044D0003397E7003337E000B3D78700D98F8144A3
:1044E00013F7770019C713F7F70091466303D70056
:1044F000910713975700635B071485041307F00FA8
:104500004A866383E4169A07A58313F5F40FB24035
:104510002244A6079314750113D59700458D7E0696
:1045200092440249518D410182806399080A1387A0
:1045300014001377E70F6317071463900422630DC9
:104540000E1EE3860EFCB307DE411397570063503F
:104550000722B387CE412E8961B7635C100B630ECF
:1045600008089307F00F6383F406B7070004B3EE5F
:10457000FE00ED4763C9171F93070002B387174179
:10458000B397FE00B3D81E01B337F000B3E7F800CD
:10459000F297139757006357070A85041307F00F24
:1045A0006384E40CB706007E13D71700FD16858BD5
:1045B000758FD98F35B7638D0E08FD18B307DE41AF
:1045C000E38208EE9307F00FE39DF4EA630D03081E
:1045D00001461305F00FB707400015BF3307984099
:1045E000EDE863020E147D17630807189307F00FB8
:1045F0006319F80E2E893683D1BF638B0E04FD1824
:10460000B307DE01E38708F89307F00FE393F4F6AE
:1046100075BF63950808850413F7E40F6313071249
:1046200063170510630F0E14E3830EEEB307DE016C
:1046300013975700814463570700370700FC7D1725
:10464000F98F854413F77700E31F07E813D337008A
:104650009307F00FE38CF4F693179300A58313F5FB
:10466000F40F4A866DB54A861305F00F814745B5AC
:10467000370700FC7D17F98F13F77700898CE31457
:1046800007E6E9B73304DE419317540063C3070C10
:10469000E31204E201460145814795BD3307984086
:1046A000ADC49307F00FE308F8F4B7070004336EC6
:1046B000FE00ED4763CCE70C93070002998FB31718
:1046C000FE003357EE00B337F000D98FF697C2845F
:1046D000C9B59307F00FE30FF8F0B7070004336E86
:1046E000FE00ED4763C3E70893060002998EB316F8
:1046F000DE00B357EE003337D000D98FB387FE40CA
:10470000C2842E8945B3854761BB630E0E067D17B3
:10471000B307DE01C284E30E07E69307F00FE31A46
:10472000F8F8368365B53683C2842E8915B7E3045D
:104730000EECE38D0EE869BD638D0E022E86B68702
:10474000F9B39307F00FE381F4F2B307DE01858339
:10475000D5BD3384CE412E89B1BBE31C0EFCE38969
:104760000EE62E8949BD854725B5854741BFE39BA8
:1047700007EC0146814761BBB387CE41C2842E89D5
:1047800015B3B68769B33683C284D9B585473DBFB3
:104790003971935775014AD856D25ECE931A950057
:1047A0001359F50106DE22DC26DA4ED652D45AD051
:1047B00093F7F70F93DA9A00CA8B638207121307F5
:1047C000F00F6384E7128E0A37070004B3EAEA00A9
:1047D000138A17F80144014B93D775019394950000
:1047E00093F7F70FA58093D9F501FDC71307F00FD5
:1047F0006387E7028E04938717F837070004D98C84
:10480000330AFA408146558C172700001307870AA0
:104810000A043A941C4033493901BA978287130A33
:104820001AF0F9E88946558C172700001307870C02
:104830000A043A941C4033493901BA9782870149E6
:104840001307F00FB707400013959700F25062541A
:104850009317770125817E095D8D33652501D2543B
:104860004259B259225A925A025BF24B216182801C
:104870001307F00F8147C9BFA68ACE8B368B8947B5
:10488000630BFB1A8D47E30CFBFA8547630AFB0AAF
:104890001307FA0713F91B006357E01293F77A0026
:1048A00099C793F7FA0091466383D700910A9397CB
:1048B0004A0063D90700B70700F8FD17B3FAFA00FA
:1048C00013070A089307E00FE3C4E7FA93976A0017
:1048D000A5831377F70F8DBFB9E48546A9B7639415
:1048E0000A021144014A054BC5BD63990A002144DF
:1048F000130AF00F094BCDB58D4631B73144130A79
:10490000F00F0D4BD1BD56852EC6EF0050309307EA
:10491000B5FFB39AFA009307A0F8338AA740014481
:10492000014BB24555BD2685EF00702E1307B5FF2C
:10493000B307AA00B394E400138A67078146E1B580
:1049400013F91B000147814701B7416613955400D5
:104950007D1693570501698E63FA9A0AB3D5FA0258
:104960007D1AD68601473388C502B3F6F602C20621
:10497000558F637B07012A979386F5FF6368A70A23
:104980006376070BF9152A9733070741B356F702E9
:104990003377F702B38AC6029317070163FB570107
:1049A000AA971387F6FF63E1A70863FF5707F91675
:1049B000AA97C205B38A5741D58DB33A5001B3EADD
:1049C0005501CA8BF1B58546998E11C76D460147D1
:1049D0008147E34BD6E6130AEA09339A4A01B3D773
:1049E000DA00B33A4001B3E7570113F7770019C76C
:1049F00013F7F70091466303D70091071397570009
:104A0000634807029A07A58301473DBD93D61A0064
:104A1000B3D5F6021397FA0141833388C502B1B7C3
:104A2000CE8B368B814AA1BDBA8661B7B685A9BF48
:104A30000547814711BD13F91B001307F00F81478C
:104A400021B593567501B7078000FD1713D6750180
:104A500093F6F60F1308F00FB3F8A7001357F501FC
:104A6000ED8F1376F60FFD8163810603630C06015B
:104A70008DE211E2B1C3638E08026305B7040545F8
:104A80001DE78280F5D779558280E39E08FE630991
:104A9000D60211E2EDD7E314B7FEE342D6FE63C7B8
:104AA000C600E3EE17FD0145E3FDF8FC01E77D5587
:104AB0008280F5DD054582800145E39208FC828015
:104AC000F9DBD1B78146E1BF93567501B707800086
:104AD000FD1713D6750193F6F60F1308F00FB3F810
:104AE000A7001357F501ED8F1376F60FFD8163874D
:104AF00006036309060185EA11EA89EB0145639B18
:104B0000080082800945F5FFE5DA31A8638C0802C8
:104B10006300B704054575D77D55828009456398C4
:104B200008026304D60211E2F5D7E315B7FEE343AA
:104B3000D6FE63C7C600E3EF17FD0145E3F3F8FCBB
:104B400019E3D9BFF1D905458280E5D382808280FF
:104B50008146C5B7797122D4135475014ECE52CC1B
:104B60009319950006D626D24AD056CA5AC813744D
:104B7000F40F93D99900135AF50169C49307F00F04
:104B80006308F40E9397390037070004B3E9E70090
:104B9000130414F88144014B13D77501939A9500BF
:104BA0001377F70F93DA9A0013D9F50145CF9307DE
:104BB000F00F630CF7028E0A130717F8B70700040B
:104BC000B3EAFA003A94014633452A01BD47AA8662
:104BD0009305140063E0971017270000130787D58B
:104BE0008A04BA949C40BA9782871304F40F6396A0
:104BF0000A0C93E424000946C1BF01451307F00FD6
:104C0000B7074000B2502254A6075E07A5837E0571
:104C1000D98F92540259F249624AD24A424B5D8D71
:104C200045618280CA86D689328B8947630FFB082B
:104C30008D47E304FBFC854736856310FB1A01476B
:104C40008147C9B7639D090413D77501939A9500ED
:104C50001377F70F91440144054B93DA9A0013D967
:104C6000F50131F7639D0A0093E414000546A9BFDE
:104C700063920902A1441304F00F094B31BF56851A
:104C800079279307B5FF098CB39AFA001304A4F8A7
:104C900001461DBFB1441304F00F0D4BF5BD4E8509
:104CA0002EC6B5279307B5FF1304A0F8B399F900F2
:104CB000098C8144014BB245C5B593E434000D46DF
:104CC00021B78947D286E315FBF636851307F00F27
:104CD00081470DBF41639306F3FF13D6090193D8B3
:104CE0000A01B3F7D900B3FADA0033885703B3895E
:104CF000F80213570801B30A5603D6994E973306A4
:104D00001603637357011A96C167FD17B376F70050
:104D10003378F800C206C29693996600935707014C
:104D2000B3393001E982B2979A07B3E6D900B3E903
:104D3000D7009397490063D9070013D7190093F759
:104D40001900B369F7002E841307F4076350E004D9
:104D500093F7790099C793F7F90091466383D700D9
:104D600091099397490063D90700B70700F8FD1729
:104D7000B3F9F900130704089307E00F63CBE704C6
:104D800093976900A5831377F70FADBD8547B38669
:104D9000E74011C76D4601478147E345D6E6130753
:104DA000E4093397E9003337E000B3D7D900D98F4E
:104DB00013F7770019C713F7F70091466303D7007D
:104DC000910713975700634C07009A07A583014783
:104DD00015BD1307F00F814735B52E84B5B70547CC
:104DE00081470DB53707800041117D179356750136
:104DF00013D87501B377A70093F6F60F935EF5010C
:104E00003376B70026C24AC01378F80F06C622C40C
:104E10001303F00F3E8E3689F684139F3700FD8111
:104E200013153600B38806416302681093C5150058
:104E3000638CBE106354100D631008106304051ECC
:104E4000FD18B307AF40638608029307F00F63882D
:104E5000F616ED4763C717291307000233071741FA
:104E60003317E500B35715013337E000D98FB30787
:104E7000FF40139757006351071A370400047D144D
:104E80007D8C228569236D15B317A400634E251B05
:104E9000330525411304150013070002018F3397D2
:104EA000E7003337E000B3D78700D98F014913F704
:104EB000770019C713F7F70091466303D7009107EE
:104EC00013975700635E0714930619001307F00F3A
:104ED00093FE14006386E6169A07A58393F6F60FF1
:104EE000A607B240224413D59700DE069397FE0131
:104EF000558D924402495D8D410182806392080A7A
:104F0000138716001377E70F631B071463940622B9
:104F100063020F2071D5B307AF4013975700635555
:104F20000722B307E5410149AE8451B7E30005F01C
:104F3000638ABE0AE35410FD9307F00F6381F608FD
:104F4000B70700045D8D31B7635E1009630108087F
:104F50009307F00F6385F606B70700045D8DED47F4
:104F600063C0171F13070002330717413317E5000B
:104F7000B35715013337E000D98FFA9713975700CD
:104F8000635C070805091307F00F630BE90AB7060E
:104F9000007E13D71700FD16858B758FD98F01BF43
:104FA0003307D84063950610630D0F147D17630314
:104FB000071A9307F00F6314F810AE84328E630F54
:104FC0000E06814E9306F00FB707400011BF39C996
:104FD000FD18B307AF00E38308FA9307F00FE390DF
:104FE000F6F8F1BF63990808138916001377E90FE3
:104FF00063160712639B061063030F16E30205EEA8
:10500000B307AF00139757000149635707003707ED
:1050100000FC7D17F98F054913F77700E31C07E8BB
:1050200013DE37009307F00FE30BF9F893179E0098
:10503000A5839376F90F93FE14005DB593FE1400DB
:105040009306F00F814769BD370700FC7D17F98F84
:1050500013F777003309A940E31E07E4D1B73304FF
:10506000AF409317540063C3070CE31C04E0814E68
:1050700081468147B5B53307D840B5C69307F00FD1
:10508000E30EF8F2B7070004336FFF00ED4763CD7E
:10509000E70C93070002998FB317FF003357EF0017
:1050A000B337F0005D8FB307A7004289C1BD9307F6
:1050B000F00FE304F8F0B7070004336FFF00ED478B
:1050C00063C2E70893070002998FB317FF003357B5
:1050D000EF00B337F000D98FB307F5404289AE84B3
:1050E00049BB854769B3630E0F067D17B307AF0051
:1050F0004289E30507E89307F00FE319F8F8328EC9
:105100007DBD328E4289AE8431BFE3090FEAE308E8
:1051100005EA45BD0DCDAE8EB287D9B39307F00F2A
:10512000E300F9F2B307AF008583FDB53304E54131
:10513000AE8481BBE31D0FFCE30505E8AE84BDBD75
:10514000854725BD854749BF0149E39707EC814E57
:10515000814779B3B307E5414289AE8419BBB28771
:1051600041B3328E42897DBD054735BF3706800089
:10517000135775019307F6FF1377F70F9305E007B1
:10518000B3F6A7009357F50163FCE5009305D0093A
:1051900063FAE500370500801345F5FF3E958280F0
:1051A0000145828093055009D18E63CDE500130639
:1051B00060093307E64033D7E6003305E040F5F3F6
:1051C0003A8582801307A7F63397E600FDB74111B1
:1051D00006C622C426C20DCD9357F54133C4A7009D
:1051E0001D8CAA84228525249307E0093387A740D4
:1051F00093076009FD8063CCE702A1469377F70F20
:1052000063D5A60061153314A4002604258021A0CF
:10521000814481470144260413559400B24022443E
:10522000DE07FE045D8D458D924441018280930727
:10523000900963DDE7009307B5019546B317F400C5
:10524000898E3354D400B337F0005D8C954763D614
:10525000A7009307B5FF3314F400B70600FCFD1652
:10526000937774003376D40085C39377F400914527
:10527000638CB70011069317560063D70700930796
:10528000F009758E3387A740131466002580937745
:10529000F70F51B7411106C622C415CD2A84852ABD
:1052A0009307E0093387A7409307600963C0E704C9
:1052B000A1469377F70F63D5A60061153314A400B8
:1052C00026042580260413559400B2402244DE07AC
:1052D0005D8D410182800144260413559400B24043
:1052E00022448147DE075D8D41018280930790094A
:1052F00063DDE7009307B5019546B317F400898E87
:10530000B337F0003354D4005D8C954763D6A700C3
:105310009307B5FF3314F400B70600FCFD1693772E
:1053200074003376D40085C39377F4009145638C81
:10533000B70011069317560063D707009307F009CB
:10534000758E3387A74013146600258026041355F5
:105350009400B24022449377F70FDE075D8D410140
:105360008280135775011377F70F411193071700C8
:1053700022C426C21314950006C693F7E70F2580B2
:105380009354F50185C79357340013070738760403
:10539000B2075207B1831395F401D98FC98FB24078
:1053A000228522449244BE854101828005EB39C4A6
:1053B0002285B128A94763C6A7042D47098F930703
:1053C00055013357E4003314F4009317C700130753
:1053D0009038098FB1831377F77F5DBF01CC1357E6
:1053E0003400B7070800D98FB2077604B1831307DA
:1053F000F07F79BF1307F07F814759BF014781478D
:1054000041BF130755FF3317E40001447DBFC16757
:10541000637CF5029307F00F1307000263EBA7000C
:105420009717000093870755AA9788233305A7404D
:1054300082802181971700009387C753AA978823FA
:1054400061473305A7408280B7070001636DF5000F
:105450006181971700009387E751AA978823214716
:105460003305A740828041819717000093878750BA
:10547000AA97882341473305A740828071713ED3A4
:105480009307402006C72EC632CD36CF3AD142D53B
:1054900046D72312F1022ACC2AD49920970700007C
:1054A000938707033EDEFD57B2452313F10293872E
:1054B00041822ACE2AD6884334092E862C0882C6F9
:1054C00082D036CA912ABA404D61828001458280DD
:1054D000AA87982185078505A38FE7FE7DFB82803B
:1054E000AA87850703C7F7FF6DFF3385A7407D15A2
:1054F000828015C27D160147B307E500B386E5003B
:105500009C2394226396D7006304C7000507EDF738
:105510003385D740828001458280AA8709CA8505E4
:1055200003C7F5FF85077D16A38FE7FE65FB3E9653
:105530006393C70082808507A38F07FED5BF411103
:1055400006C622C426C24AC0FD57639AF500FD5420
:10555000B2402244268502499244410182805E265F
:1055600013F9F50F93F4F50F93F7F7FD5EA65C5A68
:10557000584285C71C5E3284635CF7001C40138769
:10558000F7FF18C0A38F27FF5C4085075CC0C9B731
:10559000B285EF0030277DD15DBF144A1C4281CE19
:1055A00063FBF60083C6F7FF63979600FD170507B8
:1055B0001CC258C271BF5CDE930746045CDA8D479B
:1055C0001CDE930766041CC2854738C223032605E8
:1055D0005CC2BDBF411122C42E84CC5906C69DC1F8
:1055E000930744046384F500EF00703B3C40232A9A
:1055F00004025CC081CB5C5C01451CC0B24022440B
:10560000410182801C48232204007D551CC05E2479
:1056100093E707025EA4DDB7130101D297070000EC
:10562000938727F22326312D232CF1289309C101DA
:1056300097070000938747FA232C812C232A912C6B
:105640002328212D2324412D2322512D2320612D78
:10565000232E712B232C812B232E112C232A912BCB
:105660002328A12B2326B12BAA842E8423240112C4
:105670002326011223283113232EF12836CC130AB6
:105680005002130BA002A54B2949971A0000938AD8
:105690006A3E17BCFFFF130CEC961C2232C6638BCC
:1056A0000730EF00901E3246834D0600930C160023
:1056B0006E951C31A18BA1C35C406357F002EF00D3
:1056C000D01C1C4098233A951831218B19E366862B
:1056D000E9B70327C11285071CC005072326E1127D
:1056E00058407D1758C0C9BF8327C129A285268588
:1056F000829771D5E9BF63974D1723220112232E9C
:1057000001101C3263976701C147232EF110930CDF
:10571000260083C50C00668D850C938705FD63F01C
:10572000FB060D465685EF00F01A01CD33055541B5
:105730008547B397A7000325C111668D5D8D232E84
:10574000A11083470D0013077006930C1D006366BC
:10575000F7081307500663FBE71A13077004636A20
:10576000F7021307500463F3E71A63880712638B89
:10577000470F8D47232AF1122320211361A083278D
:105780004112B307F902938707FDAE972322F11266
:1057900049B71307B0056380E7126365F702130783
:1057A0008005E398E7FC0327C11113670720232E28
:1057B000E11041472320E1121307E006B337F70059
:1057C0008D073DA8130730066383E71013074006D3
:1057D000E391E7FA23202113C5B71307000763807D
:1057E000E70C6363F7061307E006638BE70E636F4E
:1057F000F70A13079006E39EE7F6232001128D4770
:10580000232AF1125C406355F0108327C11193F7EE
:10581000070491EBEF0070071C4098233A9518316C
:10582000218B631F070E832741130947634FF7102E
:10583000340822866C0A268549228547630CF516B2
:105840008947E316F5E8B9A013075007E384E7F8A2
:1058500013078007E389E7F413073007E39BE7F0BA
:10586000894779BF5C406351F0021C409823631361
:10587000B715850758401CC08327C1127D1758C033
:1058800085072326F112A1B58327C129A285268584
:10589000829761DD0325811269ED7D55F9A8032703
:1058A000C11113670702232EE110F5BDA147232084
:1058B000F1129147B1B7E6854E851D298327C111A5
:1058C000AA8C93E70704232EF110854715BF832781
:1058D000C111232A011293E70704232EF1101DB7EB
:1058E0008327C11113F70701E31307DE624793F51E
:1058F00017008326C1121306470089C532CC1C430A
:1059000096A3F1B332CC1C4394C3D1B39547CDBD1C
:105910008327C129A28526858297E30805EE9DBFCE
:105920000327C11205072326E11258407D1758C0EE
:105930006355E00085071CC0F1BD8327C129A285FE
:1059400026858297E30805ECB1B711476348F70055
:10595000340822866C0A26858922C5B5E3090CD64F
:10596000340822866C0A268597000000E7000000B4
:10597000E9B55E2493F707048DF38320C12D03243A
:10598000812D8324412D0329012D8329C12C032A34
:10599000812C832A412C032B012C832BC12B032C1C
:1059A000812B832C412B032D012B832DC12A130125
:1059B000012E828003258112C9B79C45011122CC9A
:1059C00026CA52C406CE4AC84EC656C25AC02A8AF1
:1059D0002E84B28491E7984D854711C3FD571CC4AE
:1059E0001C40C18B99E79C421387470098C283A94A
:1059F00007000149854A094B084C0DC5631F55072F
:105A00009C4098235C48BA979C2389EF631709044C
:105A1000F2406244D2444249B249224A924A024B7D
:105A2000056182801C400509C18B91E79C40850976
:105A30009C23A38FF9FE9840DC40050798C01844CA
:105A4000FD17DCC07D1718C409CBE347F0FA8327A4
:105A50000418A6855285829745D11C40C18B81EBE5
:105A60005C4485075CC41C4C99C3238009001C4816
:105A700001453E992328240161BF63196501312541
:105A80009C409C233E951C31A18BC9DFE31709FC88
:105A9000084C8547E313F5FCA5BF5D71971700001F
:105AA0009387C7FECAC03EC2368997170000938706
:105AB00027FE944D3EC4971700009387A7FDA2C40C
:105AC0004EDE5AD86ECE3EC686C6A6C252DC56DA26
:105AD0005ED662D466D26AD08D47AA892E84B28DF2
